{
  "_format": "hh-sol-artifact-1",
  "contractName": "MetaAds",
  "sourceName": "contracts/metaAds.sol",
  "abi": [
    {
      "inputs": [],
      "stateMutability": "nonpayable",
      "type": "constructor"
    },
    {
      "anonymous": false,
      "inputs": [
        {
          "indexed": true,
          "internalType": "address",
          "name": "owner",
          "type": "address"
        },
        {
          "indexed": true,
          "internalType": "address",
          "name": "approved",
          "type": "address"
        },
        {
          "indexed": true,
          "internalType": "uint256",
          "name": "tokenId",
          "type": "uint256"
        }
      ],
      "name": "Approval",
      "type": "event"
    },
    {
      "anonymous": false,
      "inputs": [
        {
          "indexed": true,
          "internalType": "address",
          "name": "owner",
          "type": "address"
        },
        {
          "indexed": true,
          "internalType": "address",
          "name": "operator",
          "type": "address"
        },
        {
          "indexed": false,
          "internalType": "bool",
          "name": "approved",
          "type": "bool"
        }
      ],
      "name": "ApprovalForAll",
      "type": "event"
    },
    {
      "anonymous": false,
      "inputs": [
        {
          "indexed": false,
          "internalType": "uint256",
          "name": "_price",
          "type": "uint256"
        },
        {
          "indexed": false,
          "internalType": "uint256",
          "name": "_tokenId",
          "type": "uint256"
        },
        {
          "indexed": false,
          "internalType": "string",
          "name": "_uri",
          "type": "string"
        },
        {
          "indexed": false,
          "internalType": "string",
          "name": "_description",
          "type": "string"
        },
        {
          "indexed": false,
          "internalType": "string",
          "name": "_name",
          "type": "string"
        }
      ],
      "name": "Mint",
      "type": "event"
    },
    {
      "anonymous": false,
      "inputs": [
        {
          "indexed": true,
          "internalType": "address",
          "name": "previousOwner",
          "type": "address"
        },
        {
          "indexed": true,
          "internalType": "address",
          "name": "newOwner",
          "type": "address"
        }
      ],
      "name": "OwnershipTransferred",
      "type": "event"
    },
    {
      "anonymous": false,
      "inputs": [
        {
          "indexed": false,
          "internalType": "uint256",
          "name": "_price",
          "type": "uint256"
        },
        {
          "indexed": false,
          "internalType": "address",
          "name": "_newOwner",
          "type": "address"
        },
        {
          "indexed": false,
          "internalType": "uint256",
          "name": "_endDate",
          "type": "uint256"
        }
      ],
      "name": "SpaceSold",
      "type": "event"
    },
    {
      "anonymous": false,
      "inputs": [
        {
          "indexed": true,
          "internalType": "address",
          "name": "from",
          "type": "address"
        },
        {
          "indexed": true,
          "internalType": "address",
          "name": "to",
          "type": "address"
        },
        {
          "indexed": true,
          "internalType": "uint256",
          "name": "tokenId",
          "type": "uint256"
        }
      ],
      "name": "Transfer",
      "type": "event"
    },
    {
      "anonymous": false,
      "inputs": [
        {
          "indexed": false,
          "internalType": "uint256",
          "name": "_id",
          "type": "uint256"
        }
      ],
      "name": "advertEnded",
      "type": "event"
    },
    {
      "inputs": [
        {
          "internalType": "address",
          "name": "to",
          "type": "address"
        },
        {
          "internalType": "uint256",
          "name": "tokenId",
          "type": "uint256"
        }
      ],
      "name": "approve",
      "outputs": [],
      "stateMutability": "nonpayable",
      "type": "function"
    },
    {
      "inputs": [
        {
          "internalType": "address",
          "name": "owner",
          "type": "address"
        }
      ],
      "name": "balanceOf",
      "outputs": [
        {
          "internalType": "uint256",
          "name": "",
          "type": "uint256"
        }
      ],
      "stateMutability": "view",
      "type": "function"
    },
    {
      "inputs": [
        {
          "internalType": "uint256",
          "name": "_index",
          "type": "uint256"
        },
        {
          "internalType": "uint256",
          "name": "_noOfDays",
          "type": "uint256"
        },
        {
          "internalType": "string",
          "name": "_headLine",
          "type": "string"
        },
        {
          "internalType": "string",
          "name": "_visualLink",
          "type": "string"
        },
        {
          "internalType": "string",
          "name": "_adDescription",
          "type": "string"
        }
      ],
      "name": "buySpace",
      "outputs": [],
      "stateMutability": "payable",
      "type": "function"
    },
    {
      "inputs": [
        {
          "internalType": "uint256",
          "name": "_index",
          "type": "uint256"
        }
      ],
      "name": "endAdvert",
      "outputs": [],
      "stateMutability": "nonpayable",
      "type": "function"
    },
    {
      "inputs": [
        {
          "internalType": "uint256",
          "name": "_index",
          "type": "uint256"
        }
      ],
      "name": "getAdvert",
      "outputs": [
        {
          "internalType": "string",
          "name": "",
          "type": "string"
        },
        {
          "internalType": "string",
          "name": "",
          "type": "string"
        },
        {
          "internalType": "string",
          "name": "",
          "type": "string"
        },
        {
          "internalType": "uint256",
          "name": "",
          "type": "uint256"
        },
        {
          "internalType": "address",
          "name": "",
          "type": "address"
        }
      ],
      "stateMutability": "view",
      "type": "function"
    },
    {
      "inputs": [
        {
          "internalType": "uint256",
          "name": "tokenId",
          "type": "uint256"
        }
      ],
      "name": "getApproved",
      "outputs": [
        {
          "internalType": "address",
          "name": "",
          "type": "address"
        }
      ],
      "stateMutability": "view",
      "type": "function"
    },
    {
      "inputs": [
        {
          "internalType": "uint256",
          "name": "_index",
          "type": "uint256"
        }
      ],
      "name": "getEndDate",
      "outputs": [
        {
          "internalType": "uint256",
          "name": "",
          "type": "uint256"
        }
      ],
      "stateMutability": "view",
      "type": "function"
    },
    {
      "inputs": [
        {
          "internalType": "uint256",
          "name": "_tokenId",
          "type": "uint256"
        }
      ],
      "name": "getSpace",
      "outputs": [
        {
          "internalType": "bool",
          "name": "",
          "type": "bool"
        },
        {
          "internalType": "uint256",
          "name": "",
          "type": "uint256"
        },
        {
          "internalType": "uint256",
          "name": "",
          "type": "uint256"
        },
        {
          "internalType": "uint256",
          "name": "",
          "type": "uint256"
        },
        {
          "internalType": "string",
          "name": "",
          "type": "string"
        },
        {
          "internalType": "string",
          "name": "",
          "type": "string"
        },
        {
          "internalType": "address",
          "name": "",
          "type": "address"
        },
        {
          "internalType": "address",
          "name": "",
          "type": "address"
        }
      ],
      "stateMutability": "view",
      "type": "function"
    },
    {
      "inputs": [
        {
          "internalType": "address",
          "name": "owner",
          "type": "address"
        },
        {
          "internalType": "address",
          "name": "operator",
          "type": "address"
        }
      ],
      "name": "isApprovedForAll",
      "outputs": [
        {
          "internalType": "bool",
          "name": "",
          "type": "bool"
        }
      ],
      "stateMutability": "view",
      "type": "function"
    },
    {
      "inputs": [
        {
          "internalType": "string",
          "name": "uri",
          "type": "string"
        },
        {
          "internalType": "uint256",
          "name": "_price",
          "type": "uint256"
        },
        {
          "internalType": "uint256",
          "name": "_dailyVisits",
          "type": "uint256"
        },
        {
          "internalType": "string",
          "name": "_description",
          "type": "string"
        },
        {
          "internalType": "string",
          "name": "_name",
          "type": "string"
        }
      ],
      "name": "mintSpace",
      "outputs": [],
      "stateMutability": "payable",
      "type": "function"
    },
    {
      "inputs": [
        {
          "internalType": "uint256",
          "name": "_newFee",
          "type": "uint256"
        }
      ],
      "name": "modifyPublicGoodsFee",
      "outputs": [],
      "stateMutability": "nonpayable",
      "type": "function"
    },
    {
      "inputs": [
        {
          "internalType": "uint256",
          "name": "_index",
          "type": "uint256"
        },
        {
          "internalType": "uint256",
          "name": "_newPrice",
          "type": "uint256"
        }
      ],
      "name": "modifySpacePrice",
      "outputs": [],
      "stateMutability": "nonpayable",
      "type": "function"
    },
    {
      "inputs": [],
      "name": "name",
      "outputs": [
        {
          "internalType": "string",
          "name": "",
          "type": "string"
        }
      ],
      "stateMutability": "view",
      "type": "function"
    },
    {
      "inputs": [],
      "name": "owner",
      "outputs": [
        {
          "internalType": "address",
          "name": "",
          "type": "address"
        }
      ],
      "stateMutability": "view",
      "type": "function"
    },
    {
      "inputs": [
        {
          "internalType": "uint256",
          "name": "tokenId",
          "type": "uint256"
        }
      ],
      "name": "ownerOf",
      "outputs": [
        {
          "internalType": "address",
          "name": "",
          "type": "address"
        }
      ],
      "stateMutability": "view",
      "type": "function"
    },
    {
      "inputs": [],
      "name": "renounceOwnership",
      "outputs": [],
      "stateMutability": "nonpayable",
      "type": "function"
    },
    {
      "inputs": [
        {
          "internalType": "address",
          "name": "from",
          "type": "address"
        },
        {
          "internalType": "address",
          "name": "to",
          "type": "address"
        },
        {
          "internalType": "uint256",
          "name": "tokenId",
          "type": "uint256"
        }
      ],
      "name": "safeTransferFrom",
      "outputs": [],
      "stateMutability": "nonpayable",
      "type": "function"
    },
    {
      "inputs": [
        {
          "internalType": "address",
          "name": "from",
          "type": "address"
        },
        {
          "internalType": "address",
          "name": "to",
          "type": "address"
        },
        {
          "internalType": "uint256",
          "name": "tokenId",
          "type": "uint256"
        },
        {
          "internalType": "bytes",
          "name": "data",
          "type": "bytes"
        }
      ],
      "name": "safeTransferFrom",
      "outputs": [],
      "stateMutability": "nonpayable",
      "type": "function"
    },
    {
      "inputs": [
        {
          "internalType": "address",
          "name": "operator",
          "type": "address"
        },
        {
          "internalType": "bool",
          "name": "approved",
          "type": "bool"
        }
      ],
      "name": "setApprovalForAll",
      "outputs": [],
      "stateMutability": "nonpayable",
      "type": "function"
    },
    {
      "inputs": [
        {
          "internalType": "bytes4",
          "name": "interfaceId",
          "type": "bytes4"
        }
      ],
      "name": "supportsInterface",
      "outputs": [
        {
          "internalType": "bool",
          "name": "",
          "type": "bool"
        }
      ],
      "stateMutability": "view",
      "type": "function"
    },
    {
      "inputs": [],
      "name": "symbol",
      "outputs": [
        {
          "internalType": "string",
          "name": "",
          "type": "string"
        }
      ],
      "stateMutability": "view",
      "type": "function"
    },
    {
      "inputs": [
        {
          "internalType": "uint256",
          "name": "index",
          "type": "uint256"
        }
      ],
      "name": "tokenByIndex",
      "outputs": [
        {
          "internalType": "uint256",
          "name": "",
          "type": "uint256"
        }
      ],
      "stateMutability": "view",
      "type": "function"
    },
    {
      "inputs": [
        {
          "internalType": "address",
          "name": "owner",
          "type": "address"
        },
        {
          "internalType": "uint256",
          "name": "index",
          "type": "uint256"
        }
      ],
      "name": "tokenOfOwnerByIndex",
      "outputs": [
        {
          "internalType": "uint256",
          "name": "",
          "type": "uint256"
        }
      ],
      "stateMutability": "view",
      "type": "function"
    },
    {
      "inputs": [
        {
          "internalType": "uint256",
          "name": "tokenId",
          "type": "uint256"
        }
      ],
      "name": "tokenURI",
      "outputs": [
        {
          "internalType": "string",
          "name": "",
          "type": "string"
        }
      ],
      "stateMutability": "view",
      "type": "function"
    },
    {
      "inputs": [],
      "name": "totalSupply",
      "outputs": [
        {
          "internalType": "uint256",
          "name": "",
          "type": "uint256"
        }
      ],
      "stateMutability": "view",
      "type": "function"
    },
    {
      "inputs": [
        {
          "internalType": "address",
          "name": "from",
          "type": "address"
        },
        {
          "internalType": "address",
          "name": "to",
          "type": "address"
        },
        {
          "internalType": "uint256",
          "name": "tokenId",
          "type": "uint256"
        }
      ],
      "name": "transferFrom",
      "outputs": [],
      "stateMutability": "nonpayable",
      "type": "function"
    },
    {
      "inputs": [
        {
          "internalType": "address",
          "name": "newOwner",
          "type": "address"
        }
      ],
      "name": "transferOwnership",
      "outputs": [],
      "stateMutability": "nonpayable",
      "type": "function"
    }
  ],
  "bytecode": "0x6080604052652d79883d2000600e55731ef9a73c675466e8f58da6bf4e9ce42dea82aae2600f60006101000a81548173ffffffffffffffffffffffffffffffffffffffff021916908373ffffffffffffffffffffffffffffffffffffffff1602179055503480156200007057600080fd5b506040518060400160405280600681526020017f53706163657300000000000000000000000000000000000000000000000000008152506040518060400160405280600381526020017f414e5300000000000000000000000000000000000000000000000000000000008152508160009080519060200190620000f592919062000205565b5080600190805190602001906200010e92919062000205565b50505062000131620001256200013760201b60201c565b6200013f60201b60201c565b6200031a565b600033905090565b6000600b60009054906101000a900473ffffffffffffffffffffffffffffffffffffffff16905081600b60006101000a81548173ffffffffffffffffffffffffffffffffffffffff021916908373ffffffffffffffffffffffffffffffffffffffff1602179055508173ffffffffffffffffffffffffffffffffffffffff168173ffffffffffffffffffffffffffffffffffffffff167f8be0079c531659141344cd1fd0a4f28419497f9722a3daafe3b4186f6b6457e060405160405180910390a35050565b8280546200021390620002b5565b90600052602060002090601f01602090048101928262000237576000855562000283565b82601f106200025257805160ff191683800117855562000283565b8280016001018555821562000283579182015b828111156200028257825182559160200191906001019062000265565b5b50905062000292919062000296565b5090565b5b80821115620002b157600081600090555060010162000297565b5090565b60006002820490506001821680620002ce57607f821691505b60208210811415620002e557620002e4620002eb565b5b50919050565b7f4e487b7100000000000000000000000000000000000000000000000000000000600052602260045260246000fd5b614eb4806200032a6000396000f3fe60806040526004361061019c5760003560e01c80636352211e116100ec57806395d89b411161008a578063c855c73911610064578063c855c739146105eb578063c87b56dd14610614578063e985e9c514610651578063f2fde38b1461068e5761019c565b806395d89b411461056e578063a22cb46514610599578063b88d4fde146105c25761019c565b806370e10431116100c657806370e10431146104a7578063715018a6146104eb578063817339b6146105025780638da5cb5b146105435761019c565b80636352211e14610411578063637b4f2b1461044e57806370a082311461046a5761019c565b806323171f491161015957806342842e0e1161013357806342842e0e146103455780634f6ccce71461036e5780635c6b047a146103ab5780635d239a48146103e85761019c565b806323171f49146102c357806323b872dd146102df5780632f745c59146103085761019c565b806301ffc9a7146101a157806306fdde03146101de578063081812fc14610209578063095ea7b31461024657806315ae937e1461026f57806318160ddd14610298575b600080fd5b3480156101ad57600080fd5b506101c860048036038101906101c39190613afe565b6106b7565b6040516101d5919061418f565b60405180910390f35b3480156101ea57600080fd5b506101f36106c9565b6040516102009190614236565b60405180910390f35b34801561021557600080fd5b50610230600480360381019061022b9190613c12565b61075b565b60405161023d9190614128565b60405180910390f35b34801561025257600080fd5b5061026d60048036038101906102689190613ac2565b6107a1565b005b34801561027b57600080fd5b5061029660048036038101906102919190613c12565b6108b9565b005b3480156102a457600080fd5b506102ad6108d8565b6040516102ba9190614520565b60405180910390f35b6102dd60048036038101906102d89190613b50565b6108e5565b005b3480156102eb57600080fd5b50610306600480360381019061030191906139bc565b610ad1565b005b34801561031457600080fd5b5061032f600480360381019061032a9190613ac2565b610b31565b60405161033c9190614520565b60405180910390f35b34801561035157600080fd5b5061036c600480360381019061036791906139bc565b610bd6565b005b34801561037a57600080fd5b5061039560048036038101906103909190613c12565b610bf6565b6040516103a29190614520565b60405180910390f35b3480156103b757600080fd5b506103d260048036038101906103cd9190613c12565b610c8d565b6040516103df9190614520565b60405180910390f35b3480156103f457600080fd5b5061040f600480360381019061040a9190613c3b565b610cad565b005b34801561041d57600080fd5b5061043860048036038101906104339190613c12565b610d49565b6040516104459190614128565b60405180910390f35b61046860048036038101906104639190613c77565b610dd0565b005b34801561047657600080fd5b50610491600480360381019061048c9190613957565b61101d565b60405161049e9190614520565b60405180910390f35b3480156104b357600080fd5b506104ce60048036038101906104c99190613c12565b6110d5565b6040516104e29897969594939291906141aa565b60405180910390f35b3480156104f757600080fd5b50610500611351565b005b34801561050e57600080fd5b5061052960048036038101906105249190613c12565b611365565b60405161053a959493929190614258565b60405180910390f35b34801561054f57600080fd5b506105586115d2565b6040516105659190614128565b60405180910390f35b34801561057a57600080fd5b506105836115fc565b6040516105909190614236565b60405180910390f35b3480156105a557600080fd5b506105c060048036038101906105bb9190613a86565b61168e565b005b3480156105ce57600080fd5b506105e960048036038101906105e49190613a0b565b6116a4565b005b3480156105f757600080fd5b50610612600480360381019061060d9190613c12565b611706565b005b34801561062057600080fd5b5061063b60048036038101906106369190613c12565b6118f8565b6040516106489190614236565b60405180910390f35b34801561065d57600080fd5b5061067860048036038101906106739190613980565b61190a565b604051610685919061418f565b60405180910390f35b34801561069a57600080fd5b506106b560048036038101906106b09190613957565b61199e565b005b60006106c282611a22565b9050919050565b6060600080546106d89061484b565b80601f01602080910402602001604051908101604052809291908181526020018280546107049061484b565b80156107515780601f1061072657610100808354040283529160200191610751565b820191906000526020600020905b81548152906001019060200180831161073457829003601f168201915b5050505050905090565b600061076682611a9c565b6004600083815260200190815260200160002060009054906101000a900473ffffffffffffffffffffffffffffffffffffffff169050919050565b60006107ac82610d49565b90508073ffffffffffffffffffffffffffffffffffffffff168373ffffffffffffffffffffffffffffffffffffffff16141561081d576040517f08c379a0000000000000000000000000000000000000000000000000000000008152600401610814906144a0565b60405180910390fd5b8073ffffffffffffffffffffffffffffffffffffffff1661083c611ae7565b73ffffffffffffffffffffffffffffffffffffffff16148061086b575061086a81610865611ae7565b61190a565b5b6108aa576040517f08c379a00000000000000000000000000000000000000000000000000000000081526004016108a1906144c0565b60405180910390fd5b6108b48383611aef565b505050565b6108c1611ba8565b600081116108ce57600080fd5b80600e8190555050565b6000600880549050905090565b6000868690501161092b576040517f08c379a000000000000000000000000000000000000000000000000000000000815260040161092290614420565b60405180910390fd5b600e54341461093957600080fd5b6000600f60009054906101000a900473ffffffffffffffffffffffffffffffffffffffff1673ffffffffffffffffffffffffffffffffffffffff16600e5460405161098390614113565b60006040518083038185875af1925050503d80600081146109c0576040519150601f19603f3d011682016040523d82523d6000602084013e6109c5565b606091505b5050905080610a09576040517f08c379a0000000000000000000000000000000000000000000000000000000008152600401610a0090614340565b60405180910390fd5b610a13600c611c26565b6000610a1f600c611c3c565b9050610a2b3382611c4a565b610a798189898080601f016020809104026020016040519081016040528093929190818152602001838380828437600081840152601f19601f82011690508083019250505050505050611c68565b610a868682878787611cdc565b7f041867f4f5721c7406919daf1159586c763be858363748cb3751528aa82ec77986828a8a8888604051610abf96959493929190614572565b60405180910390a15050505050505050565b610ae2610adc611ae7565b82611e89565b610b21576040517f08c379a0000000000000000000000000000000000000000000000000000000008152600401610b18906142c0565b60405180910390fd5b610b2c838383611f1e565b505050565b6000610b3c8361101d565b8210610b7d576040517f08c379a0000000000000000000000000000000000000000000000000000000008152600401610b74906142e0565b60405180910390fd5b600660008473ffffffffffffffffffffffffffffffffffffffff1673ffffffffffffffffffffffffffffffffffffffff168152602001908152602001600020600083815260200190815260200160002054905092915050565b610bf1838383604051806020016040528060008152506116a4565b505050565b6000610c006108d8565b8210610c41576040517f08c379a0000000000000000000000000000000000000000000000000000000008152600401610c38906144e0565b60405180910390fd5b60088281548110610c7b577f4e487b7100000000000000000000000000000000000000000000000000000000600052603260045260246000fd5b90600052602060002001549050919050565b600060116000838152602001908152602001600020600301549050919050565b816010600082815260200190815260200160002060060160009054906101000a900473ffffffffffffffffffffffffffffffffffffffff1673ffffffffffffffffffffffffffffffffffffffff163373ffffffffffffffffffffffffffffffffffffffff1614610d1c57600080fd5b60008211610d2957600080fd5b816010600085815260200190815260200160002060010181905550505050565b600080610d5583612218565b9050600073ffffffffffffffffffffffffffffffffffffffff168173ffffffffffffffffffffffffffffffffffffffff161415610dc7576040517f08c379a0000000000000000000000000000000000000000000000000000000008152600401610dbe90614480565b60405180910390fd5b80915050919050565b60006010600087815260200190815260200160002090508060060160009054906101000a900473ffffffffffffffffffffffffffffffffffffffff1673ffffffffffffffffffffffffffffffffffffffff163373ffffffffffffffffffffffffffffffffffffffff161415610e4457600080fd5b600115158160000160009054906101000a900460ff16151514610e6657600080fd5b6000858260010154610e789190614707565b9050803414610e8657600080fd5b6000808360060160009054906101000a900473ffffffffffffffffffffffffffffffffffffffff1673ffffffffffffffffffffffffffffffffffffffff1683604051610ed190614113565b60006040518083038185875af1925050503d8060008114610f0e576040519150601f19603f3d011682016040523d82523d6000602084013e610f13565b606091505b509150915081610f58576040517f08c379a0000000000000000000000000000000000000000000000000000000008152600401610f4f90614340565b60405180910390fd5b338460070160006101000a81548173ffffffffffffffffffffffffffffffffffffffff021916908373ffffffffffffffffffffffffffffffffffffffff16021790555060008460000160006101000a81548160ff0219169083151502179055506000610fc389612255565b9050610fd28a8989898561226f565b7fdc947e960a23e392e880a3e800668bf5ed41a4442238912cc43b5e9f7e6227bf856001015433836040516110099392919061453b565b60405180910390a150505050505050505050565b60008073ffffffffffffffffffffffffffffffffffffffff168273ffffffffffffffffffffffffffffffffffffffff16141561108e576040517f08c379a0000000000000000000000000000000000000000000000000000000008152600401611085906143e0565b60405180910390fd5b600360008373ffffffffffffffffffffffffffffffffffffffff1673ffffffffffffffffffffffffffffffffffffffff168152602001908152602001600020549050919050565b6000806000806060806000806000601060008b8152602001908152602001600020604051806101000160405290816000820160009054906101000a900460ff1615151515815260200160018201548152602001600282015481526020016003820154815260200160048201805461114b9061484b565b80601f01602080910402602001604051908101604052809291908181526020018280546111779061484b565b80156111c45780601f10611199576101008083540402835291602001916111c4565b820191906000526020600020905b8154815290600101906020018083116111a757829003601f168201915b505050505081526020016005820180546111dd9061484b565b80601f01602080910402602001604051908101604052809291908181526020018280546112099061484b565b80156112565780601f1061122b57610100808354040283529160200191611256565b820191906000526020600020905b81548152906001019060200180831161123957829003601f168201915b505050505081526020016006820160009054906101000a900473ffffffffffffffffffffffffffffffffffffffff1673ffffffffffffffffffffffffffffffffffffffff1673ffffffffffffffffffffffffffffffffffffffff1681526020016007820160009054906101000a900473ffffffffffffffffffffffffffffffffffffffff1673ffffffffffffffffffffffffffffffffffffffff1673ffffffffffffffffffffffffffffffffffffffff16815250509050806000015181602001518260400151836060015184608001518560a001518660c001518760e001519850985098509850985098509850985050919395975091939597565b611359611ba8565b61136360006123df565b565b60608060606000806000601160008881526020019081526020016000206040518060a001604052908160008201805461139d9061484b565b80601f01602080910402602001604051908101604052809291908181526020018280546113c99061484b565b80156114165780601f106113eb57610100808354040283529160200191611416565b820191906000526020600020905b8154815290600101906020018083116113f957829003601f168201915b5050505050815260200160018201805461142f9061484b565b80601f016020809104026020016040519081016040528092919081815260200182805461145b9061484b565b80156114a85780601f1061147d576101008083540402835291602001916114a8565b820191906000526020600020905b81548152906001019060200180831161148b57829003601f168201915b505050505081526020016002820180546114c19061484b565b80601f01602080910402602001604051908101604052809291908181526020018280546114ed9061484b565b801561153a5780601f1061150f5761010080835404028352916020019161153a565b820191906000526020600020905b81548152906001019060200180831161151d57829003601f168201915b50505050508152602001600382015481526020016004820160009054906101000a900473ffffffffffffffffffffffffffffffffffffffff1673ffffffffffffffffffffffffffffffffffffffff1673ffffffffffffffffffffffffffffffffffffffff1681525050905080600001518160200151826040015183606001518460800151955095509550955095505091939590929450565b6000600b60009054906101000a900473ffffffffffffffffffffffffffffffffffffffff16905090565b60606001805461160b9061484b565b80601f01602080910402602001604051908101604052809291908181526020018280546116379061484b565b80156116845780601f1061165957610100808354040283529160200191611684565b820191906000526020600020905b81548152906001019060200180831161166757829003601f168201915b5050505050905090565b6116a0611699611ae7565b83836124a5565b5050565b6116b56116af611ae7565b83611e89565b6116f4576040517f08c379a00000000000000000000000000000000000000000000000000000000081526004016116eb906142c0565b60405180910390fd5b61170084848484612612565b50505050565b806010600082815260200190815260200160002060060160009054906101000a900473ffffffffffffffffffffffffffffffffffffffff1673ffffffffffffffffffffffffffffffffffffffff163373ffffffffffffffffffffffffffffffffffffffff161461177557600080fd5b6011600083815260200190815260200160002060030154421161179757600080fd5b600060106000848152602001908152602001600020905060018160000160006101000a81548160ff02191690831515021790555060008160070160006101000a81548173ffffffffffffffffffffffffffffffffffffffff021916908373ffffffffffffffffffffffffffffffffffffffff1602179055506118bc836040518060400160405280600781526020017f45787069726564000000000000000000000000000000000000000000000000008152506040518060400160405280600781526020017f65787069726564000000000000000000000000000000000000000000000000008152506040518060400160405280600181526020017f2000000000000000000000000000000000000000000000000000000000000000815250600061226f565b7f6bf88cbe53011a10501ca2a1a3c3492f0b7c1ef79f3391b6bd55ff6a7dc8ba7c836040516118eb9190614520565b60405180910390a1505050565b60606119038261266e565b9050919050565b6000600560008473ffffffffffffffffffffffffffffffffffffffff1673ffffffffffffffffffffffffffffffffffffffff16815260200190815260200160002060008373ffffffffffffffffffffffffffffffffffffffff1673ffffffffffffffffffffffffffffffffffffffff16815260200190815260200160002060009054906101000a900460ff16905092915050565b6119a6611ba8565b600073ffffffffffffffffffffffffffffffffffffffff168173ffffffffffffffffffffffffffffffffffffffff161415611a16576040517f08c379a0000000000000000000000000000000000000000000000000000000008152600401611a0d90614320565b60405180910390fd5b611a1f816123df565b50565b60007f780e9d63000000000000000000000000000000000000000000000000000000007bffffffffffffffffffffffffffffffffffffffffffffffffffffffff1916827bffffffffffffffffffffffffffffffffffffffffffffffffffffffff19161480611a955750611a9482612781565b5b9050919050565b611aa581612863565b611ae4576040517f08c379a0000000000000000000000000000000000000000000000000000000008152600401611adb90614480565b60405180910390fd5b50565b600033905090565b816004600083815260200190815260200160002060006101000a81548173ffffffffffffffffffffffffffffffffffffffff021916908373ffffffffffffffffffffffffffffffffffffffff160217905550808273ffffffffffffffffffffffffffffffffffffffff16611b6283610d49565b73ffffffffffffffffffffffffffffffffffffffff167f8c5be1e5ebec7d5bd14f71427d1e84f3dd0314c0f7b2291e5b200ac8c7c3b92560405160405180910390a45050565b611bb0611ae7565b73ffffffffffffffffffffffffffffffffffffffff16611bce6115d2565b73ffffffffffffffffffffffffffffffffffffffff1614611c24576040517f08c379a0000000000000000000000000000000000000000000000000000000008152600401611c1b90614460565b60405180910390fd5b565b6001816000016000828254019250508190555050565b600081600001549050919050565b611c648282604051806020016040528060008152506128a4565b5050565b611c7182612863565b611cb0576040517f08c379a0000000000000000000000000000000000000000000000000000000008152600401611ca790614400565b60405180910390fd5b80600a60008481526020019081526020016000209080519060200190611cd7929190613731565b505050565b60008511611ce957600080fd5b6040518061010001604052806001151581526020018681526020018581526020018481526020018381526020018281526020013373ffffffffffffffffffffffffffffffffffffffff168152602001600073ffffffffffffffffffffffffffffffffffffffff1681525060106000611d61600d611c3c565b815260200190815260200160002060008201518160000160006101000a81548160ff0219169083151502179055506020820151816001015560408201518160020155606082015181600301556080820151816004019080519060200190611dc9929190613731565b5060a0820151816005019080519060200190611de6929190613731565b5060c08201518160060160006101000a81548173ffffffffffffffffffffffffffffffffffffffff021916908373ffffffffffffffffffffffffffffffffffffffff16021790555060e08201518160070160006101000a81548173ffffffffffffffffffffffffffffffffffffffff021916908373ffffffffffffffffffffffffffffffffffffffff160217905550905050611e82600d611c26565b5050505050565b600080611e9583610d49565b90508073ffffffffffffffffffffffffffffffffffffffff168473ffffffffffffffffffffffffffffffffffffffff161480611ed75750611ed6818561190a565b5b80611f1557508373ffffffffffffffffffffffffffffffffffffffff16611efd8461075b565b73ffffffffffffffffffffffffffffffffffffffff16145b91505092915050565b8273ffffffffffffffffffffffffffffffffffffffff16611f3e82610d49565b73ffffffffffffffffffffffffffffffffffffffff1614611f94576040517f08c379a0000000000000000000000000000000000000000000000000000000008152600401611f8b90614360565b60405180910390fd5b600073ffffffffffffffffffffffffffffffffffffffff168273ffffffffffffffffffffffffffffffffffffffff161415612004576040517f08c379a0000000000000000000000000000000000000000000000000000000008152600401611ffb906143a0565b60405180910390fd5b61201183838360016128ff565b8273ffffffffffffffffffffffffffffffffffffffff1661203182610d49565b73ffffffffffffffffffffffffffffffffffffffff1614612087576040517f08c379a000000000000000000000000000000000000000000000000000000000815260040161207e90614360565b60405180910390fd5b6004600082815260200190815260200160002060006101000a81549073ffffffffffffffffffffffffffffffffffffffff02191690556001600360008573ffffffffffffffffffffffffffffffffffffffff1673ffffffffffffffffffffffffffffffffffffffff168152602001908152602001600020600082825403925050819055506001600360008473ffffffffffffffffffffffffffffffffffffffff1673ffffffffffffffffffffffffffffffffffffffff16815260200190815260200160002060008282540192505081905550816002600083815260200190815260200160002060006101000a81548173ffffffffffffffffffffffffffffffffffffffff021916908373ffffffffffffffffffffffffffffffffffffffff160217905550808273ffffffffffffffffffffffffffffffffffffffff168473ffffffffffffffffffffffffffffffffffffffff167fddf252ad1be2c89b69c2b068fc378daa952ba7f163c4a11628f55a4df523b3ef60405160405180910390a46122138383836001612911565b505050565b60006002600083815260200190815260200160002060009054906101000a900473ffffffffffffffffffffffffffffffffffffffff169050919050565b600080824261226491906146b1565b905080915050919050565b6010600086815260200190815260200160002060070160009054906101000a900473ffffffffffffffffffffffffffffffffffffffff1673ffffffffffffffffffffffffffffffffffffffff163373ffffffffffffffffffffffffffffffffffffffff16146122dd57600080fd5b6040518060a001604052808581526020018481526020018381526020018281526020013373ffffffffffffffffffffffffffffffffffffffff16815250601160008781526020019081526020016000206000820151816000019080519060200190612349929190613731565b506020820151816001019080519060200190612366929190613731565b506040820151816002019080519060200190612383929190613731565b506060820151816003015560808201518160040160006101000a81548173ffffffffffffffffffffffffffffffffffffffff021916908373ffffffffffffffffffffffffffffffffffffffff1602179055509050505050505050565b6000600b60009054906101000a900473ffffffffffffffffffffffffffffffffffffffff16905081600b60006101000a81548173ffffffffffffffffffffffffffffffffffffffff021916908373ffffffffffffffffffffffffffffffffffffffff1602179055508173ffffffffffffffffffffffffffffffffffffffff168173ffffffffffffffffffffffffffffffffffffffff167f8be0079c531659141344cd1fd0a4f28419497f9722a3daafe3b4186f6b6457e060405160405180910390a35050565b8173ffffffffffffffffffffffffffffffffffffffff168373ffffffffffffffffffffffffffffffffffffffff161415612514576040517f08c379a000000000000000000000000000000000000000000000000000000000815260040161250b906143c0565b60405180910390fd5b80600560008573ffffffffffffffffffffffffffffffffffffffff1673ffffffffffffffffffffffffffffffffffffffff16815260200190815260200160002060008473ffffffffffffffffffffffffffffffffffffffff1673ffffffffffffffffffffffffffffffffffffffff16815260200190815260200160002060006101000a81548160ff0219169083151502179055508173ffffffffffffffffffffffffffffffffffffffff168373ffffffffffffffffffffffffffffffffffffffff167f17307eab39ab6107e8899845ad3d59bd9653f200f220920489ca2b5937696c3183604051612605919061418f565b60405180910390a3505050565b61261d848484611f1e565b61262984848484612917565b612668576040517f08c379a000000000000000000000000000000000000000000000000000000000815260040161265f90614300565b60405180910390fd5b50505050565b606061267982611a9c565b6000600a600084815260200190815260200160002080546126999061484b565b80601f01602080910402602001604051908101604052809291908181526020018280546126c59061484b565b80156127125780601f106126e757610100808354040283529160200191612712565b820191906000526020600020905b8154815290600101906020018083116126f557829003601f168201915b505050505090506000612723612aae565b905060008151141561273957819250505061277c565b60008251111561276e5780826040516020016127569291906140ef565b6040516020818303038152906040529250505061277c565b61277784612ac5565b925050505b919050565b60007f80ac58cd000000000000000000000000000000000000000000000000000000007bffffffffffffffffffffffffffffffffffffffffffffffffffffffff1916827bffffffffffffffffffffffffffffffffffffffffffffffffffffffff1916148061284c57507f5b5e139f000000000000000000000000000000000000000000000000000000007bffffffffffffffffffffffffffffffffffffffffffffffffffffffff1916827bffffffffffffffffffffffffffffffffffffffffffffffffffffffff1916145b8061285c575061285b82612b2d565b5b9050919050565b60008073ffffffffffffffffffffffffffffffffffffffff1661288583612218565b73ffffffffffffffffffffffffffffffffffffffff1614159050919050565b6128ae8383612b97565b6128bb6000848484612917565b6128fa576040517f08c379a00000000000000000000000000000000000000000000000000000000081526004016128f190614300565b60405180910390fd5b505050565b61290b84848484612db5565b50505050565b50505050565b60006129388473ffffffffffffffffffffffffffffffffffffffff16612f15565b15612aa1578373ffffffffffffffffffffffffffffffffffffffff1663150b7a02612961611ae7565b8786866040518563ffffffff1660e01b81526004016129839493929190614143565b602060405180830381600087803b15801561299d57600080fd5b505af19250505080156129ce57506040513d601f19601f820116820180604052508101906129cb9190613b27565b60015b612a51573d80600081146129fe576040519150601f19603f3d011682016040523d82523d6000602084013e612a03565b606091505b50600081511415612a49576040517f08c379a0000000000000000000000000000000000000000000000000000000008152600401612a4090614300565b60405180910390fd5b805181602001fd5b63150b7a0260e01b7bffffffffffffffffffffffffffffffffffffffffffffffffffffffff1916817bffffffffffffffffffffffffffffffffffffffffffffffffffffffff191614915050612aa6565b600190505b949350505050565b606060405180602001604052806000815250905090565b6060612ad082611a9c565b6000612ada612aae565b90506000815111612afa5760405180602001604052806000815250612b25565b80612b0484612f38565b604051602001612b159291906140ef565b6040516020818303038152906040525b915050919050565b60007f01ffc9a7000000000000000000000000000000000000000000000000000000007bffffffffffffffffffffffffffffffffffffffffffffffffffffffff1916827bffffffffffffffffffffffffffffffffffffffffffffffffffffffff1916149050919050565b600073ffffffffffffffffffffffffffffffffffffffff168273ffffffffffffffffffffffffffffffffffffffff161415612c07576040517f08c379a0000000000000000000000000000000000000000000000000000000008152600401612bfe90614440565b60405180910390fd5b612c1081612863565b15612c50576040517f08c379a0000000000000000000000000000000000000000000000000000000008152600401612c4790614380565b60405180910390fd5b612c5e6000838360016128ff565b612c6781612863565b15612ca7576040517f08c379a0000000000000000000000000000000000000000000000000000000008152600401612c9e90614380565b60405180910390fd5b6001600360008473ffffffffffffffffffffffffffffffffffffffff1673ffffffffffffffffffffffffffffffffffffffff16815260200190815260200160002060008282540192505081905550816002600083815260200190815260200160002060006101000a81548173ffffffffffffffffffffffffffffffffffffffff021916908373ffffffffffffffffffffffffffffffffffffffff160217905550808273ffffffffffffffffffffffffffffffffffffffff16600073ffffffffffffffffffffffffffffffffffffffff167fddf252ad1be2c89b69c2b068fc378daa952ba7f163c4a11628f55a4df523b3ef60405160405180910390a4612db1600083836001612911565b5050565b612dc18484848461305c565b6001811115612e05576040517f08c379a0000000000000000000000000000000000000000000000000000000008152600401612dfc90614500565b60405180910390fd5b6000829050600073ffffffffffffffffffffffffffffffffffffffff168573ffffffffffffffffffffffffffffffffffffffff161415612e4d57612e4881613182565b612e8c565b8373ffffffffffffffffffffffffffffffffffffffff168573ffffffffffffffffffffffffffffffffffffffff1614612e8b57612e8a85826131cb565b5b5b600073ffffffffffffffffffffffffffffffffffffffff168473ffffffffffffffffffffffffffffffffffffffff161415612ecf57612eca81613338565b612f0e565b8473ffffffffffffffffffffffffffffffffffffffff168473ffffffffffffffffffffffffffffffffffffffff1614612f0d57612f0c848261347b565b5b5b5050505050565b6000808273ffffffffffffffffffffffffffffffffffffffff163b119050919050565b606060006001612f47846134fa565b01905060008167ffffffffffffffff811115612f8c577f4e487b7100000000000000000000000000000000000000000000000000000000600052604160045260246000fd5b6040519080825280601f01601f191660200182016040528015612fbe5781602001600182028036833780820191505090505b509050600082602001820190505b600115613051578080600190039150507f3031323334353637383961626364656600000000000000000000000000000000600a86061a8153600a858161303b577f4e487b7100000000000000000000000000000000000000000000000000000000600052601260045260246000fd5b049450600085141561304c57613051565b612fcc565b819350505050919050565b600181111561317c57600073ffffffffffffffffffffffffffffffffffffffff168473ffffffffffffffffffffffffffffffffffffffff16146130f05780600360008673ffffffffffffffffffffffffffffffffffffffff1673ffffffffffffffffffffffffffffffffffffffff16815260200190815260200160002060008282546130e89190614761565b925050819055505b600073ffffffffffffffffffffffffffffffffffffffff168373ffffffffffffffffffffffffffffffffffffffff161461317b5780600360008573ffffffffffffffffffffffffffffffffffffffff1673ffffffffffffffffffffffffffffffffffffffff168152602001908152602001600020600082825461317391906146b1565b925050819055505b5b50505050565b6008805490506009600083815260200190815260200160002081905550600881908060018154018082558091505060019003906000526020600020016000909190919091505550565b600060016131d88461101d565b6131e29190614761565b90506000600760008481526020019081526020016000205490508181146132c7576000600660008673ffffffffffffffffffffffffffffffffffffffff1673ffffffffffffffffffffffffffffffffffffffff168152602001908152602001600020600084815260200190815260200160002054905080600660008773ffffffffffffffffffffffffffffffffffffffff1673ffffffffffffffffffffffffffffffffffffffff168152602001908152602001600020600084815260200190815260200160002081905550816007600083815260200190815260200160002081905550505b6007600084815260200190815260200160002060009055600660008573ffffffffffffffffffffffffffffffffffffffff1673ffffffffffffffffffffffffffffffffffffffff16815260200190815260200160002060008381526020019081526020016000206000905550505050565b6000600160088054905061334c9190614761565b90506000600960008481526020019081526020016000205490506000600883815481106133a2577f4e487b7100000000000000000000000000000000000000000000000000000000600052603260045260246000fd5b9060005260206000200154905080600883815481106133ea577f4e487b7100000000000000000000000000000000000000000000000000000000600052603260045260246000fd5b90600052602060002001819055508160096000838152602001908152602001600020819055506009600085815260200190815260200160002060009055600880548061345f577f4e487b7100000000000000000000000000000000000000000000000000000000600052603160045260246000fd5b6001900381819060005260206000200160009055905550505050565b60006134868361101d565b905081600660008573ffffffffffffffffffffffffffffffffffffffff1673ffffffffffffffffffffffffffffffffffffffff168152602001908152602001600020600083815260200190815260200160002081905550806007600084815260200190815260200160002081905550505050565b600080600090507a184f03e93ff9f4daa797ed6e38ed64bf6a1f010000000000000000831061357e577a184f03e93ff9f4daa797ed6e38ed64bf6a1f0100000000000000008381613574577f4e487b7100000000000000000000000000000000000000000000000000000000600052601260045260246000fd5b0492506040810190505b6d04ee2d6d415b85acef810000000083106135e1576d04ee2d6d415b85acef810000000083816135d7577f4e487b7100000000000000000000000000000000000000000000000000000000600052601260045260246000fd5b0492506020810190505b662386f26fc10000831061363657662386f26fc10000838161362c577f4e487b7100000000000000000000000000000000000000000000000000000000600052601260045260246000fd5b0492506010810190505b6305f5e1008310613685576305f5e100838161367b577f4e487b7100000000000000000000000000000000000000000000000000000000600052601260045260246000fd5b0492506008810190505b61271083106136d05761271083816136c6577f4e487b7100000000000000000000000000000000000000000000000000000000600052601260045260246000fd5b0492506004810190505b60648310613719576064838161370f577f4e487b7100000000000000000000000000000000000000000000000000000000600052601260045260246000fd5b0492506002810190505b600a8310613728576001810190505b80915050919050565b82805461373d9061484b565b90600052602060002090601f01602090048101928261375f57600085556137a6565b82601f1061377857805160ff19168380011785556137a6565b828001600101855582156137a6579182015b828111156137a557825182559160200191906001019061378a565b5b5090506137b391906137b7565b5090565b5b808211156137d05760008160009055506001016137b8565b5090565b60006137e76137e284614601565b6145dc565b9050828152602081018484840111156137ff57600080fd5b61380a848285614809565b509392505050565b600061382561382084614632565b6145dc565b90508281526020810184848401111561383d57600080fd5b613848848285614809565b509392505050565b60008135905061385f81614e22565b92915050565b60008135905061387481614e39565b92915050565b60008135905061388981614e50565b92915050565b60008151905061389e81614e50565b92915050565b600082601f8301126138b557600080fd5b81356138c58482602086016137d4565b91505092915050565b60008083601f8401126138e057600080fd5b8235905067ffffffffffffffff8111156138f957600080fd5b60208301915083600182028301111561391157600080fd5b9250929050565b600082601f83011261392957600080fd5b8135613939848260208601613812565b91505092915050565b60008135905061395181614e67565b92915050565b60006020828403121561396957600080fd5b600061397784828501613850565b91505092915050565b6000806040838503121561399357600080fd5b60006139a185828601613850565b92505060206139b285828601613850565b9150509250929050565b6000806000606084860312156139d157600080fd5b60006139df86828701613850565b93505060206139f086828701613850565b9250506040613a0186828701613942565b9150509250925092565b60008060008060808587031215613a2157600080fd5b6000613a2f87828801613850565b9450506020613a4087828801613850565b9350506040613a5187828801613942565b925050606085013567ffffffffffffffff811115613a6e57600080fd5b613a7a878288016138a4565b91505092959194509250565b60008060408385031215613a9957600080fd5b6000613aa785828601613850565b9250506020613ab885828601613865565b9150509250929050565b60008060408385031215613ad557600080fd5b6000613ae385828601613850565b9250506020613af485828601613942565b9150509250929050565b600060208284031215613b1057600080fd5b6000613b1e8482850161387a565b91505092915050565b600060208284031215613b3957600080fd5b6000613b478482850161388f565b91505092915050565b60008060008060008060a08789031215613b6957600080fd5b600087013567ffffffffffffffff811115613b8357600080fd5b613b8f89828a016138ce565b96509650506020613ba289828a01613942565b9450506040613bb389828a01613942565b935050606087013567ffffffffffffffff811115613bd057600080fd5b613bdc89828a01613918565b925050608087013567ffffffffffffffff811115613bf957600080fd5b613c0589828a01613918565b9150509295509295509295565b600060208284031215613c2457600080fd5b6000613c3284828501613942565b91505092915050565b60008060408385031215613c4e57600080fd5b6000613c5c85828601613942565b9250506020613c6d85828601613942565b9150509250929050565b600080600080600060a08688031215613c8f57600080fd5b6000613c9d88828901613942565b9550506020613cae88828901613942565b945050604086013567ffffffffffffffff811115613ccb57600080fd5b613cd788828901613918565b935050606086013567ffffffffffffffff811115613cf457600080fd5b613d0088828901613918565b925050608086013567ffffffffffffffff811115613d1d57600080fd5b613d2988828901613918565b9150509295509295909350565b613d3f81614795565b82525050565b613d4e816147a7565b82525050565b6000613d5f82614663565b613d698185614679565b9350613d79818560208601614818565b613d828161493b565b840191505092915050565b6000613d998385614695565b9350613da6838584614809565b613daf8361493b565b840190509392505050565b6000613dc58261466e565b613dcf8185614695565b9350613ddf818560208601614818565b613de88161493b565b840191505092915050565b6000613dfe8261466e565b613e0881856146a6565b9350613e18818560208601614818565b80840191505092915050565b6000613e31602d83614695565b9150613e3c8261494c565b604082019050919050565b6000613e54602b83614695565b9150613e5f8261499b565b604082019050919050565b6000613e77603283614695565b9150613e82826149ea565b604082019050919050565b6000613e9a602683614695565b9150613ea582614a39565b604082019050919050565b6000613ebd600f83614695565b9150613ec882614a88565b602082019050919050565b6000613ee0602583614695565b9150613eeb82614ab1565b604082019050919050565b6000613f03601c83614695565b9150613f0e82614b00565b602082019050919050565b6000613f26602483614695565b9150613f3182614b29565b604082019050919050565b6000613f49601983614695565b9150613f5482614b78565b602082019050919050565b6000613f6c602983614695565b9150613f7782614ba1565b604082019050919050565b6000613f8f602e83614695565b9150613f9a82614bf0565b604082019050919050565b6000613fb2600983614695565b9150613fbd82614c3f565b602082019050919050565b6000613fd5602083614695565b9150613fe082614c68565b602082019050919050565b6000613ff8602083614695565b915061400382614c91565b602082019050919050565b600061401b601883614695565b915061402682614cba565b602082019050919050565b600061403e602183614695565b915061404982614ce3565b604082019050919050565b600061406160008361468a565b915061406c82614d32565b600082019050919050565b6000614084603d83614695565b915061408f82614d35565b604082019050919050565b60006140a7602c83614695565b91506140b282614d84565b604082019050919050565b60006140ca603583614695565b91506140d582614dd3565b604082019050919050565b6140e9816147ff565b82525050565b60006140fb8285613df3565b91506141078284613df3565b91508190509392505050565b600061411e82614054565b9150819050919050565b600060208201905061413d6000830184613d36565b92915050565b60006080820190506141586000830187613d36565b6141656020830186613d36565b61417260408301856140e0565b81810360608301526141848184613d54565b905095945050505050565b60006020820190506141a46000830184613d45565b92915050565b6000610100820190506141c0600083018b613d45565b6141cd602083018a6140e0565b6141da60408301896140e0565b6141e760608301886140e0565b81810360808301526141f98187613dba565b905081810360a083015261420d8186613dba565b905061421c60c0830185613d36565b61422960e0830184613d36565b9998505050505050505050565b600060208201905081810360008301526142508184613dba565b905092915050565b600060a08201905081810360008301526142728188613dba565b905081810360208301526142868187613dba565b9050818103604083015261429a8186613dba565b90506142a960608301856140e0565b6142b66080830184613d36565b9695505050505050565b600060208201905081810360008301526142d981613e24565b9050919050565b600060208201905081810360008301526142f981613e47565b9050919050565b6000602082019050818103600083015261431981613e6a565b9050919050565b6000602082019050818103600083015261433981613e8d565b9050919050565b6000602082019050818103600083015261435981613eb0565b9050919050565b6000602082019050818103600083015261437981613ed3565b9050919050565b6000602082019050818103600083015261439981613ef6565b9050919050565b600060208201905081810360008301526143b981613f19565b9050919050565b600060208201905081810360008301526143d981613f3c565b9050919050565b600060208201905081810360008301526143f981613f5f565b9050919050565b6000602082019050818103600083015261441981613f82565b9050919050565b6000602082019050818103600083015261443981613fa5565b9050919050565b6000602082019050818103600083015261445981613fc8565b9050919050565b6000602082019050818103600083015261447981613feb565b9050919050565b600060208201905081810360008301526144998161400e565b9050919050565b600060208201905081810360008301526144b981614031565b9050919050565b600060208201905081810360008301526144d981614077565b9050919050565b600060208201905081810360008301526144f98161409a565b9050919050565b60006020820190508181036000830152614519816140bd565b9050919050565b600060208201905061453560008301846140e0565b92915050565b600060608201905061455060008301866140e0565b61455d6020830185613d36565b61456a60408301846140e0565b949350505050565b600060a08201905061458760008301896140e0565b61459460208301886140e0565b81810360408301526145a7818688613d8d565b905081810360608301526145bb8185613dba565b905081810360808301526145cf8184613dba565b9050979650505050505050565b60006145e66145f7565b90506145f2828261487d565b919050565b6000604051905090565b600067ffffffffffffffff82111561461c5761461b61490c565b5b6146258261493b565b9050602081019050919050565b600067ffffffffffffffff82111561464d5761464c61490c565b5b6146568261493b565b9050602081019050919050565b600081519050919050565b600081519050919050565b600082825260208201905092915050565b600081905092915050565b600082825260208201905092915050565b600081905092915050565b60006146bc826147ff565b91506146c7836147ff565b9250827fffffffffffffffffffffffffffffffffffffffffffffffffffffffffffffffff038211156146fc576146fb6148ae565b5b828201905092915050565b6000614712826147ff565b915061471d836147ff565b9250817fffffffffffffffffffffffffffffffffffffffffffffffffffffffffffffffff0483118215151615614756576147556148ae565b5b828202905092915050565b600061476c826147ff565b9150614777836147ff565b92508282101561478a576147896148ae565b5b828203905092915050565b60006147a0826147df565b9050919050565b60008115159050919050565b60007fffffffff0000000000000000000000000000000000000000000000000000000082169050919050565b600073ffffffffffffffffffffffffffffffffffffffff82169050919050565b6000819050919050565b82818337600083830152505050565b60005b8381101561483657808201518184015260208101905061481b565b83811115614845576000848401525b50505050565b6000600282049050600182168061486357607f821691505b60208210811415614877576148766148dd565b5b50919050565b6148868261493b565b810181811067ffffffffffffffff821117156148a5576148a461490c565b5b80604052505050565b7f4e487b7100000000000000000000000000000000000000000000000000000000600052601160045260246000fd5b7f4e487b7100000000000000000000000000000000000000000000000000000000600052602260045260246000fd5b7f4e487b7100000000000000000000000000000000000000000000000000000000600052604160045260246000fd5b6000601f19601f8301169050919050565b7f4552433732313a2063616c6c6572206973206e6f7420746f6b656e206f776e6560008201527f72206f7220617070726f76656400000000000000000000000000000000000000602082015250565b7f455243373231456e756d657261626c653a206f776e657220696e646578206f7560008201527f74206f6620626f756e6473000000000000000000000000000000000000000000602082015250565b7f4552433732313a207472616e7366657220746f206e6f6e20455243373231526560008201527f63656976657220696d706c656d656e7465720000000000000000000000000000602082015250565b7f4f776e61626c653a206e6577206f776e657220697320746865207a65726f206160008201527f6464726573730000000000000000000000000000000000000000000000000000602082015250565b7f5472616e73666572206661696c65640000000000000000000000000000000000600082015250565b7f4552433732313a207472616e736665722066726f6d20696e636f72726563742060008201527f6f776e6572000000000000000000000000000000000000000000000000000000602082015250565b7f4552433732313a20746f6b656e20616c7265616479206d696e74656400000000600082015250565b7f4552433732313a207472616e7366657220746f20746865207a65726f2061646460008201527f7265737300000000000000000000000000000000000000000000000000000000602082015250565b7f4552433732313a20617070726f766520746f2063616c6c657200000000000000600082015250565b7f4552433732313a2061646472657373207a65726f206973206e6f74206120766160008201527f6c6964206f776e65720000000000000000000000000000000000000000000000602082015250565b7f45524337323155524953746f726167653a2055524920736574206f66206e6f6e60008201527f6578697374656e7420746f6b656e000000000000000000000000000000000000602082015250565b7f456d707479207572690000000000000000000000000000000000000000000000600082015250565b7f4552433732313a206d696e7420746f20746865207a65726f2061646472657373600082015250565b7f4f776e61626c653a2063616c6c6572206973206e6f7420746865206f776e6572600082015250565b7f4552433732313a20696e76616c696420746f6b656e2049440000000000000000600082015250565b7f4552433732313a20617070726f76616c20746f2063757272656e74206f776e6560008201527f7200000000000000000000000000000000000000000000000000000000000000602082015250565b50565b7f4552433732313a20617070726f76652063616c6c6572206973206e6f7420746f60008201527f6b656e206f776e6572206f7220617070726f76656420666f7220616c6c000000602082015250565b7f455243373231456e756d657261626c653a20676c6f62616c20696e646578206f60008201527f7574206f6620626f756e64730000000000000000000000000000000000000000602082015250565b7f455243373231456e756d657261626c653a20636f6e736563757469766520747260008201527f616e7366657273206e6f7420737570706f727465640000000000000000000000602082015250565b614e2b81614795565b8114614e3657600080fd5b50565b614e42816147a7565b8114614e4d57600080fd5b50565b614e59816147b3565b8114614e6457600080fd5b50565b614e70816147ff565b8114614e7b57600080fd5b5056fea26469706673582212202aa7119d88b4682150ad200d49e46793460e1b4157f0eaba6a34ebc4ac6f5b7d64736f6c63430008040033",
  "linkReferences": {},
  "deployedLinkReferences": {}
}