{
  "_format": "hh-sol-artifact-1",
  "contractName": "MetaAds",
  "sourceName": "contracts/metaAds.sol",
  "abi": [
    {
      "inputs": [],
      "stateMutability": "nonpayable",
      "type": "constructor"
    },
    {
      "anonymous": false,
      "inputs": [
        {
          "indexed": true,
          "internalType": "address",
          "name": "owner",
          "type": "address"
        },
        {
          "indexed": true,
          "internalType": "address",
          "name": "approved",
          "type": "address"
        },
        {
          "indexed": true,
          "internalType": "uint256",
          "name": "tokenId",
          "type": "uint256"
        }
      ],
      "name": "Approval",
      "type": "event"
    },
    {
      "anonymous": false,
      "inputs": [
        {
          "indexed": true,
          "internalType": "address",
          "name": "owner",
          "type": "address"
        },
        {
          "indexed": true,
          "internalType": "address",
          "name": "operator",
          "type": "address"
        },
        {
          "indexed": false,
          "internalType": "bool",
          "name": "approved",
          "type": "bool"
        }
      ],
      "name": "ApprovalForAll",
      "type": "event"
    },
    {
      "anonymous": false,
      "inputs": [
        {
          "indexed": false,
          "internalType": "uint256",
          "name": "_price",
          "type": "uint256"
        },
        {
          "indexed": false,
          "internalType": "uint256",
          "name": "_tokenId",
          "type": "uint256"
        },
        {
          "indexed": false,
          "internalType": "string",
          "name": "_uri",
          "type": "string"
        },
        {
          "indexed": false,
          "internalType": "string",
          "name": "_description",
          "type": "string"
        },
        {
          "indexed": false,
          "internalType": "string",
          "name": "_name",
          "type": "string"
        }
      ],
      "name": "Mint",
      "type": "event"
    },
    {
      "anonymous": false,
      "inputs": [
        {
          "indexed": true,
          "internalType": "address",
          "name": "previousOwner",
          "type": "address"
        },
        {
          "indexed": true,
          "internalType": "address",
          "name": "newOwner",
          "type": "address"
        }
      ],
      "name": "OwnershipTransferred",
      "type": "event"
    },
    {
      "anonymous": false,
      "inputs": [
        {
          "indexed": false,
          "internalType": "uint256",
          "name": "_price",
          "type": "uint256"
        },
        {
          "indexed": false,
          "internalType": "address",
          "name": "_newOwner",
          "type": "address"
        },
        {
          "indexed": false,
          "internalType": "uint256",
          "name": "_endDate",
          "type": "uint256"
        }
      ],
      "name": "SpaceSold",
      "type": "event"
    },
    {
      "anonymous": false,
      "inputs": [
        {
          "indexed": true,
          "internalType": "address",
          "name": "from",
          "type": "address"
        },
        {
          "indexed": true,
          "internalType": "address",
          "name": "to",
          "type": "address"
        },
        {
          "indexed": true,
          "internalType": "uint256",
          "name": "tokenId",
          "type": "uint256"
        }
      ],
      "name": "Transfer",
      "type": "event"
    },
    {
      "anonymous": false,
      "inputs": [
        {
          "indexed": false,
          "internalType": "uint256",
          "name": "_id",
          "type": "uint256"
        }
      ],
      "name": "advertEnded",
      "type": "event"
    },
    {
      "inputs": [
        {
          "internalType": "address",
          "name": "to",
          "type": "address"
        },
        {
          "internalType": "uint256",
          "name": "tokenId",
          "type": "uint256"
        }
      ],
      "name": "approve",
      "outputs": [],
      "stateMutability": "nonpayable",
      "type": "function"
    },
    {
      "inputs": [
        {
          "internalType": "address",
          "name": "owner",
          "type": "address"
        }
      ],
      "name": "balanceOf",
      "outputs": [
        {
          "internalType": "uint256",
          "name": "",
          "type": "uint256"
        }
      ],
      "stateMutability": "view",
      "type": "function"
    },
    {
      "inputs": [
        {
          "internalType": "uint256",
          "name": "_index",
          "type": "uint256"
        },
        {
          "internalType": "uint256",
          "name": "_noOfDays",
          "type": "uint256"
        },
        {
          "internalType": "string",
          "name": "_headLine",
          "type": "string"
        },
        {
          "internalType": "string",
          "name": "_visualLink",
          "type": "string"
        },
        {
          "internalType": "string",
          "name": "_adDescription",
          "type": "string"
        }
      ],
      "name": "buySpace",
      "outputs": [],
      "stateMutability": "payable",
      "type": "function"
    },
    {
      "inputs": [
        {
          "internalType": "uint256",
          "name": "_index",
          "type": "uint256"
        }
      ],
      "name": "endAdvert",
      "outputs": [],
      "stateMutability": "nonpayable",
      "type": "function"
    },
    {
      "inputs": [
        {
          "internalType": "uint256",
          "name": "_index",
          "type": "uint256"
        }
      ],
      "name": "getAdvert",
      "outputs": [
        {
          "internalType": "string",
          "name": "",
          "type": "string"
        },
        {
          "internalType": "string",
          "name": "",
          "type": "string"
        },
        {
          "internalType": "string",
          "name": "",
          "type": "string"
        },
        {
          "internalType": "uint256",
          "name": "",
          "type": "uint256"
        },
        {
          "internalType": "address",
          "name": "",
          "type": "address"
        }
      ],
      "stateMutability": "view",
      "type": "function"
    },
    {
      "inputs": [
        {
          "internalType": "uint256",
          "name": "tokenId",
          "type": "uint256"
        }
      ],
      "name": "getApproved",
      "outputs": [
        {
          "internalType": "address",
          "name": "",
          "type": "address"
        }
      ],
      "stateMutability": "view",
      "type": "function"
    },
    {
      "inputs": [
        {
          "internalType": "uint256",
          "name": "_index",
          "type": "uint256"
        }
      ],
      "name": "getEndDate",
      "outputs": [
        {
          "internalType": "uint256",
          "name": "",
          "type": "uint256"
        }
      ],
      "stateMutability": "view",
      "type": "function"
    },
    {
      "inputs": [
        {
          "internalType": "uint256",
          "name": "_tokenId",
          "type": "uint256"
        }
      ],
      "name": "getSpace",
      "outputs": [
        {
          "internalType": "bool",
          "name": "",
          "type": "bool"
        },
        {
          "internalType": "uint256",
          "name": "",
          "type": "uint256"
        },
        {
          "internalType": "uint256",
          "name": "",
          "type": "uint256"
        },
        {
          "internalType": "uint256",
          "name": "",
          "type": "uint256"
        },
        {
          "internalType": "string",
          "name": "",
          "type": "string"
        },
        {
          "internalType": "string",
          "name": "",
          "type": "string"
        },
        {
          "internalType": "address",
          "name": "",
          "type": "address"
        },
        {
          "internalType": "address",
          "name": "",
          "type": "address"
        }
      ],
      "stateMutability": "view",
      "type": "function"
    },
    {
      "inputs": [
        {
          "internalType": "address",
          "name": "owner",
          "type": "address"
        },
        {
          "internalType": "address",
          "name": "operator",
          "type": "address"
        }
      ],
      "name": "isApprovedForAll",
      "outputs": [
        {
          "internalType": "bool",
          "name": "",
          "type": "bool"
        }
      ],
      "stateMutability": "view",
      "type": "function"
    },
    {
      "inputs": [
        {
          "internalType": "string",
          "name": "uri",
          "type": "string"
        },
        {
          "internalType": "uint256",
          "name": "_price",
          "type": "uint256"
        },
        {
          "internalType": "uint256",
          "name": "_dailyVisits",
          "type": "uint256"
        },
        {
          "internalType": "string",
          "name": "_description",
          "type": "string"
        },
        {
          "internalType": "string",
          "name": "_name",
          "type": "string"
        }
      ],
      "name": "mintSpace",
      "outputs": [],
      "stateMutability": "payable",
      "type": "function"
    },
    {
      "inputs": [
        {
          "internalType": "uint256",
          "name": "_newFee",
          "type": "uint256"
        }
      ],
      "name": "modifyPublicGoodsFee",
      "outputs": [],
      "stateMutability": "nonpayable",
      "type": "function"
    },
    {
      "inputs": [
        {
          "internalType": "uint256",
          "name": "_index",
          "type": "uint256"
        },
        {
          "internalType": "uint256",
          "name": "_newPrice",
          "type": "uint256"
        }
      ],
      "name": "modifySpacePrice",
      "outputs": [],
      "stateMutability": "nonpayable",
      "type": "function"
    },
    {
      "inputs": [],
      "name": "name",
      "outputs": [
        {
          "internalType": "string",
          "name": "",
          "type": "string"
        }
      ],
      "stateMutability": "view",
      "type": "function"
    },
    {
      "inputs": [],
      "name": "owner",
      "outputs": [
        {
          "internalType": "address",
          "name": "",
          "type": "address"
        }
      ],
      "stateMutability": "view",
      "type": "function"
    },
    {
      "inputs": [
        {
          "internalType": "uint256",
          "name": "tokenId",
          "type": "uint256"
        }
      ],
      "name": "ownerOf",
      "outputs": [
        {
          "internalType": "address",
          "name": "",
          "type": "address"
        }
      ],
      "stateMutability": "view",
      "type": "function"
    },
    {
      "inputs": [],
      "name": "renounceOwnership",
      "outputs": [],
      "stateMutability": "nonpayable",
      "type": "function"
    },
    {
      "inputs": [
        {
          "internalType": "address",
          "name": "from",
          "type": "address"
        },
        {
          "internalType": "address",
          "name": "to",
          "type": "address"
        },
        {
          "internalType": "uint256",
          "name": "tokenId",
          "type": "uint256"
        }
      ],
      "name": "safeTransferFrom",
      "outputs": [],
      "stateMutability": "nonpayable",
      "type": "function"
    },
    {
      "inputs": [
        {
          "internalType": "address",
          "name": "from",
          "type": "address"
        },
        {
          "internalType": "address",
          "name": "to",
          "type": "address"
        },
        {
          "internalType": "uint256",
          "name": "tokenId",
          "type": "uint256"
        },
        {
          "internalType": "bytes",
          "name": "data",
          "type": "bytes"
        }
      ],
      "name": "safeTransferFrom",
      "outputs": [],
      "stateMutability": "nonpayable",
      "type": "function"
    },
    {
      "inputs": [
        {
          "internalType": "address",
          "name": "operator",
          "type": "address"
        },
        {
          "internalType": "bool",
          "name": "approved",
          "type": "bool"
        }
      ],
      "name": "setApprovalForAll",
      "outputs": [],
      "stateMutability": "nonpayable",
      "type": "function"
    },
    {
      "inputs": [
        {
          "internalType": "bytes4",
          "name": "interfaceId",
          "type": "bytes4"
        }
      ],
      "name": "supportsInterface",
      "outputs": [
        {
          "internalType": "bool",
          "name": "",
          "type": "bool"
        }
      ],
      "stateMutability": "view",
      "type": "function"
    },
    {
      "inputs": [],
      "name": "symbol",
      "outputs": [
        {
          "internalType": "string",
          "name": "",
          "type": "string"
        }
      ],
      "stateMutability": "view",
      "type": "function"
    },
    {
      "inputs": [
        {
          "internalType": "uint256",
          "name": "index",
          "type": "uint256"
        }
      ],
      "name": "tokenByIndex",
      "outputs": [
        {
          "internalType": "uint256",
          "name": "",
          "type": "uint256"
        }
      ],
      "stateMutability": "view",
      "type": "function"
    },
    {
      "inputs": [
        {
          "internalType": "address",
          "name": "owner",
          "type": "address"
        },
        {
          "internalType": "uint256",
          "name": "index",
          "type": "uint256"
        }
      ],
      "name": "tokenOfOwnerByIndex",
      "outputs": [
        {
          "internalType": "uint256",
          "name": "",
          "type": "uint256"
        }
      ],
      "stateMutability": "view",
      "type": "function"
    },
    {
      "inputs": [
        {
          "internalType": "uint256",
          "name": "tokenId",
          "type": "uint256"
        }
      ],
      "name": "tokenURI",
      "outputs": [
        {
          "internalType": "string",
          "name": "",
          "type": "string"
        }
      ],
      "stateMutability": "view",
      "type": "function"
    },
    {
      "inputs": [],
      "name": "totalSupply",
      "outputs": [
        {
          "internalType": "uint256",
          "name": "",
          "type": "uint256"
        }
      ],
      "stateMutability": "view",
      "type": "function"
    },
    {
      "inputs": [
        {
          "internalType": "address",
          "name": "from",
          "type": "address"
        },
        {
          "internalType": "address",
          "name": "to",
          "type": "address"
        },
        {
          "internalType": "uint256",
          "name": "tokenId",
          "type": "uint256"
        }
      ],
      "name": "transferFrom",
      "outputs": [],
      "stateMutability": "nonpayable",
      "type": "function"
    },
    {
      "inputs": [
        {
          "internalType": "address",
          "name": "newOwner",
          "type": "address"
        }
      ],
      "name": "transferOwnership",
      "outputs": [],
      "stateMutability": "nonpayable",
      "type": "function"
    }
  ],
  "bytecode": "0x60806040526706f05b59d3b20000600e553480156200001d57600080fd5b506040518060400160405280600681526020017f53706163657300000000000000000000000000000000000000000000000000008152506040518060400160405280600381526020017f414e5300000000000000000000000000000000000000000000000000000000008152508160009080519060200190620000a2929190620001b2565b508060019080519060200190620000bb929190620001b2565b505050620000de620000d2620000e460201b60201c565b620000ec60201b60201c565b620002c7565b600033905090565b6000600b60009054906101000a900473ffffffffffffffffffffffffffffffffffffffff16905081600b60006101000a81548173ffffffffffffffffffffffffffffffffffffffff021916908373ffffffffffffffffffffffffffffffffffffffff1602179055508173ffffffffffffffffffffffffffffffffffffffff168173ffffffffffffffffffffffffffffffffffffffff167f8be0079c531659141344cd1fd0a4f28419497f9722a3daafe3b4186f6b6457e060405160405180910390a35050565b828054620001c09062000262565b90600052602060002090601f016020900481019282620001e4576000855562000230565b82601f10620001ff57805160ff191683800117855562000230565b8280016001018555821562000230579182015b828111156200022f57825182559160200191906001019062000212565b5b5090506200023f919062000243565b5090565b5b808211156200025e57600081600090555060010162000244565b5090565b600060028204905060018216806200027b57607f821691505b6020821081141562000292576200029162000298565b5b50919050565b7f4e487b7100000000000000000000000000000000000000000000000000000000600052602260045260246000fd5b614dd580620002d76000396000f3fe60806040526004361061019c5760003560e01c80636352211e116100ec57806395d89b411161008a578063c855c73911610064578063c855c739146105eb578063c87b56dd14610614578063e985e9c514610651578063f2fde38b1461068e5761019c565b806395d89b411461056e578063a22cb46514610599578063b88d4fde146105c25761019c565b806370e10431116100c657806370e10431146104a7578063715018a6146104eb578063817339b6146105025780638da5cb5b146105435761019c565b80636352211e14610411578063637b4f2b1461044e57806370a082311461046a5761019c565b806323171f491161015957806342842e0e1161013357806342842e0e146103455780634f6ccce71461036e5780635c6b047a146103ab5780635d239a48146103e85761019c565b806323171f49146102c357806323b872dd146102df5780632f745c59146103085761019c565b806301ffc9a7146101a157806306fdde03146101de578063081812fc14610209578063095ea7b31461024657806315ae937e1461026f57806318160ddd14610298575b600080fd5b3480156101ad57600080fd5b506101c860048036038101906101c39190613a1f565b6106b7565b6040516101d591906140b0565b60405180910390f35b3480156101ea57600080fd5b506101f36106c9565b6040516102009190614157565b60405180910390f35b34801561021557600080fd5b50610230600480360381019061022b9190613b33565b61075b565b60405161023d9190614049565b60405180910390f35b34801561025257600080fd5b5061026d600480360381019061026891906139e3565b6107a1565b005b34801561027b57600080fd5b5061029660048036038101906102919190613b33565b6108b9565b005b3480156102a457600080fd5b506102ad6108d8565b6040516102ba9190614441565b60405180910390f35b6102dd60048036038101906102d89190613a71565b6108e5565b005b3480156102eb57600080fd5b50610306600480360381019061030191906138dd565b6109f2565b005b34801561031457600080fd5b5061032f600480360381019061032a91906139e3565b610a52565b60405161033c9190614441565b60405180910390f35b34801561035157600080fd5b5061036c600480360381019061036791906138dd565b610af7565b005b34801561037a57600080fd5b5061039560048036038101906103909190613b33565b610b17565b6040516103a29190614441565b60405180910390f35b3480156103b757600080fd5b506103d260048036038101906103cd9190613b33565b610bae565b6040516103df9190614441565b60405180910390f35b3480156103f457600080fd5b5061040f600480360381019061040a9190613b5c565b610bce565b005b34801561041d57600080fd5b5061043860048036038101906104339190613b33565b610c6a565b6040516104459190614049565b60405180910390f35b61046860048036038101906104639190613b98565b610cf1565b005b34801561047657600080fd5b50610491600480360381019061048c9190613878565b610f3e565b60405161049e9190614441565b60405180910390f35b3480156104b357600080fd5b506104ce60048036038101906104c99190613b33565b610ff6565b6040516104e29897969594939291906140cb565b60405180910390f35b3480156104f757600080fd5b50610500611272565b005b34801561050e57600080fd5b5061052960048036038101906105249190613b33565b611286565b60405161053a959493929190614179565b60405180910390f35b34801561054f57600080fd5b506105586114f3565b6040516105659190614049565b60405180910390f35b34801561057a57600080fd5b5061058361151d565b6040516105909190614157565b60405180910390f35b3480156105a557600080fd5b506105c060048036038101906105bb91906139a7565b6115af565b005b3480156105ce57600080fd5b506105e960048036038101906105e4919061392c565b6115c5565b005b3480156105f757600080fd5b50610612600480360381019061060d9190613b33565b611627565b005b34801561062057600080fd5b5061063b60048036038101906106369190613b33565b611819565b6040516106489190614157565b60405180910390f35b34801561065d57600080fd5b50610678600480360381019061067391906138a1565b61182b565b60405161068591906140b0565b60405180910390f35b34801561069a57600080fd5b506106b560048036038101906106b09190613878565b6118bf565b005b60006106c282611943565b9050919050565b6060600080546106d89061476c565b80601f01602080910402602001604051908101604052809291908181526020018280546107049061476c565b80156107515780601f1061072657610100808354040283529160200191610751565b820191906000526020600020905b81548152906001019060200180831161073457829003601f168201915b5050505050905090565b6000610766826119bd565b6004600083815260200190815260200160002060009054906101000a900473ffffffffffffffffffffffffffffffffffffffff169050919050565b60006107ac82610c6a565b90508073ffffffffffffffffffffffffffffffffffffffff168373ffffffffffffffffffffffffffffffffffffffff16141561081d576040517f08c379a0000000000000000000000000000000000000000000000000000000008152600401610814906143c1565b60405180910390fd5b8073ffffffffffffffffffffffffffffffffffffffff1661083c611a08565b73ffffffffffffffffffffffffffffffffffffffff16148061086b575061086a81610865611a08565b61182b565b5b6108aa576040517f08c379a00000000000000000000000000000000000000000000000000000000081526004016108a1906143e1565b60405180910390fd5b6108b48383611a10565b505050565b6108c1611ac9565b600081116108ce57600080fd5b80600e8190555050565b6000600880549050905090565b6000868690501161092b576040517f08c379a000000000000000000000000000000000000000000000000000000000815260040161092290614341565b60405180910390fd5b610935600c611b47565b6000610941600c611b5d565b905061094d3382611b6b565b61099b8188888080601f016020809104026020016040519081016040528093929190818152602001838380828437600081840152601f19601f82011690508083019250505050505050611b89565b6109a88582868686611bfd565b7f041867f4f5721c7406919daf1159586c763be858363748cb3751528aa82ec7798582898987876040516109e196959493929190614493565b60405180910390a150505050505050565b610a036109fd611a08565b82611daa565b610a42576040517f08c379a0000000000000000000000000000000000000000000000000000000008152600401610a39906141e1565b60405180910390fd5b610a4d838383611e3f565b505050565b6000610a5d83610f3e565b8210610a9e576040517f08c379a0000000000000000000000000000000000000000000000000000000008152600401610a9590614201565b60405180910390fd5b600660008473ffffffffffffffffffffffffffffffffffffffff1673ffffffffffffffffffffffffffffffffffffffff168152602001908152602001600020600083815260200190815260200160002054905092915050565b610b12838383604051806020016040528060008152506115c5565b505050565b6000610b216108d8565b8210610b62576040517f08c379a0000000000000000000000000000000000000000000000000000000008152600401610b5990614401565b60405180910390fd5b60088281548110610b9c577f4e487b7100000000000000000000000000000000000000000000000000000000600052603260045260246000fd5b90600052602060002001549050919050565b600060116000838152602001908152602001600020600301549050919050565b816010600082815260200190815260200160002060060160009054906101000a900473ffffffffffffffffffffffffffffffffffffffff1673ffffffffffffffffffffffffffffffffffffffff163373ffffffffffffffffffffffffffffffffffffffff1614610c3d57600080fd5b60008211610c4a57600080fd5b816010600085815260200190815260200160002060010181905550505050565b600080610c7683612139565b9050600073ffffffffffffffffffffffffffffffffffffffff168173ffffffffffffffffffffffffffffffffffffffff161415610ce8576040517f08c379a0000000000000000000000000000000000000000000000000000000008152600401610cdf906143a1565b60405180910390fd5b80915050919050565b60006010600087815260200190815260200160002090508060060160009054906101000a900473ffffffffffffffffffffffffffffffffffffffff1673ffffffffffffffffffffffffffffffffffffffff163373ffffffffffffffffffffffffffffffffffffffff161415610d6557600080fd5b600115158160000160009054906101000a900460ff16151514610d8757600080fd5b6000858260010154610d999190614628565b9050803414610da757600080fd5b6000808360060160009054906101000a900473ffffffffffffffffffffffffffffffffffffffff1673ffffffffffffffffffffffffffffffffffffffff1683604051610df290614034565b60006040518083038185875af1925050503d8060008114610e2f576040519150601f19603f3d011682016040523d82523d6000602084013e610e34565b606091505b509150915081610e79576040517f08c379a0000000000000000000000000000000000000000000000000000000008152600401610e7090614261565b60405180910390fd5b338460070160006101000a81548173ffffffffffffffffffffffffffffffffffffffff021916908373ffffffffffffffffffffffffffffffffffffffff16021790555060008460000160006101000a81548160ff0219169083151502179055506000610ee489612176565b9050610ef38a89898985612190565b7fdc947e960a23e392e880a3e800668bf5ed41a4442238912cc43b5e9f7e6227bf85600101543383604051610f2a9392919061445c565b60405180910390a150505050505050505050565b60008073ffffffffffffffffffffffffffffffffffffffff168273ffffffffffffffffffffffffffffffffffffffff161415610faf576040517f08c379a0000000000000000000000000000000000000000000000000000000008152600401610fa690614301565b60405180910390fd5b600360008373ffffffffffffffffffffffffffffffffffffffff1673ffffffffffffffffffffffffffffffffffffffff168152602001908152602001600020549050919050565b6000806000806060806000806000601060008b8152602001908152602001600020604051806101000160405290816000820160009054906101000a900460ff1615151515815260200160018201548152602001600282015481526020016003820154815260200160048201805461106c9061476c565b80601f01602080910402602001604051908101604052809291908181526020018280546110989061476c565b80156110e55780601f106110ba576101008083540402835291602001916110e5565b820191906000526020600020905b8154815290600101906020018083116110c857829003601f168201915b505050505081526020016005820180546110fe9061476c565b80601f016020809104026020016040519081016040528092919081815260200182805461112a9061476c565b80156111775780601f1061114c57610100808354040283529160200191611177565b820191906000526020600020905b81548152906001019060200180831161115a57829003601f168201915b505050505081526020016006820160009054906101000a900473ffffffffffffffffffffffffffffffffffffffff1673ffffffffffffffffffffffffffffffffffffffff1673ffffffffffffffffffffffffffffffffffffffff1681526020016007820160009054906101000a900473ffffffffffffffffffffffffffffffffffffffff1673ffffffffffffffffffffffffffffffffffffffff1673ffffffffffffffffffffffffffffffffffffffff16815250509050806000015181602001518260400151836060015184608001518560a001518660c001518760e001519850985098509850985098509850985050919395975091939597565b61127a611ac9565b6112846000612300565b565b60608060606000806000601160008881526020019081526020016000206040518060a00160405290816000820180546112be9061476c565b80601f01602080910402602001604051908101604052809291908181526020018280546112ea9061476c565b80156113375780601f1061130c57610100808354040283529160200191611337565b820191906000526020600020905b81548152906001019060200180831161131a57829003601f168201915b505050505081526020016001820180546113509061476c565b80601f016020809104026020016040519081016040528092919081815260200182805461137c9061476c565b80156113c95780601f1061139e576101008083540402835291602001916113c9565b820191906000526020600020905b8154815290600101906020018083116113ac57829003601f168201915b505050505081526020016002820180546113e29061476c565b80601f016020809104026020016040519081016040528092919081815260200182805461140e9061476c565b801561145b5780601f106114305761010080835404028352916020019161145b565b820191906000526020600020905b81548152906001019060200180831161143e57829003601f168201915b50505050508152602001600382015481526020016004820160009054906101000a900473ffffffffffffffffffffffffffffffffffffffff1673ffffffffffffffffffffffffffffffffffffffff1673ffffffffffffffffffffffffffffffffffffffff1681525050905080600001518160200151826040015183606001518460800151955095509550955095505091939590929450565b6000600b60009054906101000a900473ffffffffffffffffffffffffffffffffffffffff16905090565b60606001805461152c9061476c565b80601f01602080910402602001604051908101604052809291908181526020018280546115589061476c565b80156115a55780601f1061157a576101008083540402835291602001916115a5565b820191906000526020600020905b81548152906001019060200180831161158857829003601f168201915b5050505050905090565b6115c16115ba611a08565b83836123c6565b5050565b6115d66115d0611a08565b83611daa565b611615576040517f08c379a000000000000000000000000000000000000000000000000000000000815260040161160c906141e1565b60405180910390fd5b61162184848484612533565b50505050565b806010600082815260200190815260200160002060060160009054906101000a900473ffffffffffffffffffffffffffffffffffffffff1673ffffffffffffffffffffffffffffffffffffffff163373ffffffffffffffffffffffffffffffffffffffff161461169657600080fd5b601160008381526020019081526020016000206003015442116116b857600080fd5b600060106000848152602001908152602001600020905060018160000160006101000a81548160ff02191690831515021790555060008160070160006101000a81548173ffffffffffffffffffffffffffffffffffffffff021916908373ffffffffffffffffffffffffffffffffffffffff1602179055506117dd836040518060400160405280600181526020017f20000000000000000000000000000000000000000000000000000000000000008152506040518060400160405280600181526020017f20000000000000000000000000000000000000000000000000000000000000008152506040518060400160405280600181526020017f20000000000000000000000000000000000000000000000000000000000000008152506000612190565b7f6bf88cbe53011a10501ca2a1a3c3492f0b7c1ef79f3391b6bd55ff6a7dc8ba7c8360405161180c9190614441565b60405180910390a1505050565b60606118248261258f565b9050919050565b6000600560008473ffffffffffffffffffffffffffffffffffffffff1673ffffffffffffffffffffffffffffffffffffffff16815260200190815260200160002060008373ffffffffffffffffffffffffffffffffffffffff1673ffffffffffffffffffffffffffffffffffffffff16815260200190815260200160002060009054906101000a900460ff16905092915050565b6118c7611ac9565b600073ffffffffffffffffffffffffffffffffffffffff168173ffffffffffffffffffffffffffffffffffffffff161415611937576040517f08c379a000000000000000000000000000000000000000000000000000000000815260040161192e90614241565b60405180910390fd5b61194081612300565b50565b60007f780e9d63000000000000000000000000000000000000000000000000000000007bffffffffffffffffffffffffffffffffffffffffffffffffffffffff1916827bffffffffffffffffffffffffffffffffffffffffffffffffffffffff191614806119b657506119b5826126a2565b5b9050919050565b6119c681612784565b611a05576040517f08c379a00000000000000000000000000000000000000000000000000000000081526004016119fc906143a1565b60405180910390fd5b50565b600033905090565b816004600083815260200190815260200160002060006101000a81548173ffffffffffffffffffffffffffffffffffffffff021916908373ffffffffffffffffffffffffffffffffffffffff160217905550808273ffffffffffffffffffffffffffffffffffffffff16611a8383610c6a565b73ffffffffffffffffffffffffffffffffffffffff167f8c5be1e5ebec7d5bd14f71427d1e84f3dd0314c0f7b2291e5b200ac8c7c3b92560405160405180910390a45050565b611ad1611a08565b73ffffffffffffffffffffffffffffffffffffffff16611aef6114f3565b73ffffffffffffffffffffffffffffffffffffffff1614611b45576040517f08c379a0000000000000000000000000000000000000000000000000000000008152600401611b3c90614381565b60405180910390fd5b565b6001816000016000828254019250508190555050565b600081600001549050919050565b611b858282604051806020016040528060008152506127c5565b5050565b611b9282612784565b611bd1576040517f08c379a0000000000000000000000000000000000000000000000000000000008152600401611bc890614321565b60405180910390fd5b80600a60008481526020019081526020016000209080519060200190611bf8929190613652565b505050565b60008511611c0a57600080fd5b6040518061010001604052806001151581526020018681526020018581526020018481526020018381526020018281526020013373ffffffffffffffffffffffffffffffffffffffff168152602001600073ffffffffffffffffffffffffffffffffffffffff1681525060106000611c82600d611b5d565b815260200190815260200160002060008201518160000160006101000a81548160ff0219169083151502179055506020820151816001015560408201518160020155606082015181600301556080820151816004019080519060200190611cea929190613652565b5060a0820151816005019080519060200190611d07929190613652565b5060c08201518160060160006101000a81548173ffffffffffffffffffffffffffffffffffffffff021916908373ffffffffffffffffffffffffffffffffffffffff16021790555060e08201518160070160006101000a81548173ffffffffffffffffffffffffffffffffffffffff021916908373ffffffffffffffffffffffffffffffffffffffff160217905550905050611da3600d611b47565b5050505050565b600080611db683610c6a565b90508073ffffffffffffffffffffffffffffffffffffffff168473ffffffffffffffffffffffffffffffffffffffff161480611df85750611df7818561182b565b5b80611e3657508373ffffffffffffffffffffffffffffffffffffffff16611e1e8461075b565b73ffffffffffffffffffffffffffffffffffffffff16145b91505092915050565b8273ffffffffffffffffffffffffffffffffffffffff16611e5f82610c6a565b73ffffffffffffffffffffffffffffffffffffffff1614611eb5576040517f08c379a0000000000000000000000000000000000000000000000000000000008152600401611eac90614281565b60405180910390fd5b600073ffffffffffffffffffffffffffffffffffffffff168273ffffffffffffffffffffffffffffffffffffffff161415611f25576040517f08c379a0000000000000000000000000000000000000000000000000000000008152600401611f1c906142c1565b60405180910390fd5b611f328383836001612820565b8273ffffffffffffffffffffffffffffffffffffffff16611f5282610c6a565b73ffffffffffffffffffffffffffffffffffffffff1614611fa8576040517f08c379a0000000000000000000000000000000000000000000000000000000008152600401611f9f90614281565b60405180910390fd5b6004600082815260200190815260200160002060006101000a81549073ffffffffffffffffffffffffffffffffffffffff02191690556001600360008573ffffffffffffffffffffffffffffffffffffffff1673ffffffffffffffffffffffffffffffffffffffff168152602001908152602001600020600082825403925050819055506001600360008473ffffffffffffffffffffffffffffffffffffffff1673ffffffffffffffffffffffffffffffffffffffff16815260200190815260200160002060008282540192505081905550816002600083815260200190815260200160002060006101000a81548173ffffffffffffffffffffffffffffffffffffffff021916908373ffffffffffffffffffffffffffffffffffffffff160217905550808273ffffffffffffffffffffffffffffffffffffffff168473ffffffffffffffffffffffffffffffffffffffff167fddf252ad1be2c89b69c2b068fc378daa952ba7f163c4a11628f55a4df523b3ef60405160405180910390a46121348383836001612832565b505050565b60006002600083815260200190815260200160002060009054906101000a900473ffffffffffffffffffffffffffffffffffffffff169050919050565b600080824261218591906145d2565b905080915050919050565b6010600086815260200190815260200160002060070160009054906101000a900473ffffffffffffffffffffffffffffffffffffffff1673ffffffffffffffffffffffffffffffffffffffff163373ffffffffffffffffffffffffffffffffffffffff16146121fe57600080fd5b6040518060a001604052808581526020018481526020018381526020018281526020013373ffffffffffffffffffffffffffffffffffffffff1681525060116000878152602001908152602001600020600082015181600001908051906020019061226a929190613652565b506020820151816001019080519060200190612287929190613652565b5060408201518160020190805190602001906122a4929190613652565b506060820151816003015560808201518160040160006101000a81548173ffffffffffffffffffffffffffffffffffffffff021916908373ffffffffffffffffffffffffffffffffffffffff1602179055509050505050505050565b6000600b60009054906101000a900473ffffffffffffffffffffffffffffffffffffffff16905081600b60006101000a81548173ffffffffffffffffffffffffffffffffffffffff021916908373ffffffffffffffffffffffffffffffffffffffff1602179055508173ffffffffffffffffffffffffffffffffffffffff168173ffffffffffffffffffffffffffffffffffffffff167f8be0079c531659141344cd1fd0a4f28419497f9722a3daafe3b4186f6b6457e060405160405180910390a35050565b8173ffffffffffffffffffffffffffffffffffffffff168373ffffffffffffffffffffffffffffffffffffffff161415612435576040517f08c379a000000000000000000000000000000000000000000000000000000000815260040161242c906142e1565b60405180910390fd5b80600560008573ffffffffffffffffffffffffffffffffffffffff1673ffffffffffffffffffffffffffffffffffffffff16815260200190815260200160002060008473ffffffffffffffffffffffffffffffffffffffff1673ffffffffffffffffffffffffffffffffffffffff16815260200190815260200160002060006101000a81548160ff0219169083151502179055508173ffffffffffffffffffffffffffffffffffffffff168373ffffffffffffffffffffffffffffffffffffffff167f17307eab39ab6107e8899845ad3d59bd9653f200f220920489ca2b5937696c318360405161252691906140b0565b60405180910390a3505050565b61253e848484611e3f565b61254a84848484612838565b612589576040517f08c379a000000000000000000000000000000000000000000000000000000000815260040161258090614221565b60405180910390fd5b50505050565b606061259a826119bd565b6000600a600084815260200190815260200160002080546125ba9061476c565b80601f01602080910402602001604051908101604052809291908181526020018280546125e69061476c565b80156126335780601f1061260857610100808354040283529160200191612633565b820191906000526020600020905b81548152906001019060200180831161261657829003601f168201915b5050505050905060006126446129cf565b905060008151141561265a57819250505061269d565b60008251111561268f578082604051602001612677929190614010565b6040516020818303038152906040529250505061269d565b612698846129e6565b925050505b919050565b60007f80ac58cd000000000000000000000000000000000000000000000000000000007bffffffffffffffffffffffffffffffffffffffffffffffffffffffff1916827bffffffffffffffffffffffffffffffffffffffffffffffffffffffff1916148061276d57507f5b5e139f000000000000000000000000000000000000000000000000000000007bffffffffffffffffffffffffffffffffffffffffffffffffffffffff1916827bffffffffffffffffffffffffffffffffffffffffffffffffffffffff1916145b8061277d575061277c82612a4e565b5b9050919050565b60008073ffffffffffffffffffffffffffffffffffffffff166127a683612139565b73ffffffffffffffffffffffffffffffffffffffff1614159050919050565b6127cf8383612ab8565b6127dc6000848484612838565b61281b576040517f08c379a000000000000000000000000000000000000000000000000000000000815260040161281290614221565b60405180910390fd5b505050565b61282c84848484612cd6565b50505050565b50505050565b60006128598473ffffffffffffffffffffffffffffffffffffffff16612e36565b156129c2578373ffffffffffffffffffffffffffffffffffffffff1663150b7a02612882611a08565b8786866040518563ffffffff1660e01b81526004016128a49493929190614064565b602060405180830381600087803b1580156128be57600080fd5b505af19250505080156128ef57506040513d601f19601f820116820180604052508101906128ec9190613a48565b60015b612972573d806000811461291f576040519150601f19603f3d011682016040523d82523d6000602084013e612924565b606091505b5060008151141561296a576040517f08c379a000000000000000000000000000000000000000000000000000000000815260040161296190614221565b60405180910390fd5b805181602001fd5b63150b7a0260e01b7bffffffffffffffffffffffffffffffffffffffffffffffffffffffff1916817bffffffffffffffffffffffffffffffffffffffffffffffffffffffff1916149150506129c7565b600190505b949350505050565b606060405180602001604052806000815250905090565b60606129f1826119bd565b60006129fb6129cf565b90506000815111612a1b5760405180602001604052806000815250612a46565b80612a2584612e59565b604051602001612a36929190614010565b6040516020818303038152906040525b915050919050565b60007f01ffc9a7000000000000000000000000000000000000000000000000000000007bffffffffffffffffffffffffffffffffffffffffffffffffffffffff1916827bffffffffffffffffffffffffffffffffffffffffffffffffffffffff1916149050919050565b600073ffffffffffffffffffffffffffffffffffffffff168273ffffffffffffffffffffffffffffffffffffffff161415612b28576040517f08c379a0000000000000000000000000000000000000000000000000000000008152600401612b1f90614361565b60405180910390fd5b612b3181612784565b15612b71576040517f08c379a0000000000000000000000000000000000000000000000000000000008152600401612b68906142a1565b60405180910390fd5b612b7f600083836001612820565b612b8881612784565b15612bc8576040517f08c379a0000000000000000000000000000000000000000000000000000000008152600401612bbf906142a1565b60405180910390fd5b6001600360008473ffffffffffffffffffffffffffffffffffffffff1673ffffffffffffffffffffffffffffffffffffffff16815260200190815260200160002060008282540192505081905550816002600083815260200190815260200160002060006101000a81548173ffffffffffffffffffffffffffffffffffffffff021916908373ffffffffffffffffffffffffffffffffffffffff160217905550808273ffffffffffffffffffffffffffffffffffffffff16600073ffffffffffffffffffffffffffffffffffffffff167fddf252ad1be2c89b69c2b068fc378daa952ba7f163c4a11628f55a4df523b3ef60405160405180910390a4612cd2600083836001612832565b5050565b612ce284848484612f7d565b6001811115612d26576040517f08c379a0000000000000000000000000000000000000000000000000000000008152600401612d1d90614421565b60405180910390fd5b6000829050600073ffffffffffffffffffffffffffffffffffffffff168573ffffffffffffffffffffffffffffffffffffffff161415612d6e57612d69816130a3565b612dad565b8373ffffffffffffffffffffffffffffffffffffffff168573ffffffffffffffffffffffffffffffffffffffff1614612dac57612dab85826130ec565b5b5b600073ffffffffffffffffffffffffffffffffffffffff168473ffffffffffffffffffffffffffffffffffffffff161415612df057612deb81613259565b612e2f565b8473ffffffffffffffffffffffffffffffffffffffff168473ffffffffffffffffffffffffffffffffffffffff1614612e2e57612e2d848261339c565b5b5b5050505050565b6000808273ffffffffffffffffffffffffffffffffffffffff163b119050919050565b606060006001612e688461341b565b01905060008167ffffffffffffffff811115612ead577f4e487b7100000000000000000000000000000000000000000000000000000000600052604160045260246000fd5b6040519080825280601f01601f191660200182016040528015612edf5781602001600182028036833780820191505090505b509050600082602001820190505b600115612f72578080600190039150507f3031323334353637383961626364656600000000000000000000000000000000600a86061a8153600a8581612f5c577f4e487b7100000000000000000000000000000000000000000000000000000000600052601260045260246000fd5b0494506000851415612f6d57612f72565b612eed565b819350505050919050565b600181111561309d57600073ffffffffffffffffffffffffffffffffffffffff168473ffffffffffffffffffffffffffffffffffffffff16146130115780600360008673ffffffffffffffffffffffffffffffffffffffff1673ffffffffffffffffffffffffffffffffffffffff16815260200190815260200160002060008282546130099190614682565b925050819055505b600073ffffffffffffffffffffffffffffffffffffffff168373ffffffffffffffffffffffffffffffffffffffff161461309c5780600360008573ffffffffffffffffffffffffffffffffffffffff1673ffffffffffffffffffffffffffffffffffffffff168152602001908152602001600020600082825461309491906145d2565b925050819055505b5b50505050565b6008805490506009600083815260200190815260200160002081905550600881908060018154018082558091505060019003906000526020600020016000909190919091505550565b600060016130f984610f3e565b6131039190614682565b90506000600760008481526020019081526020016000205490508181146131e8576000600660008673ffffffffffffffffffffffffffffffffffffffff1673ffffffffffffffffffffffffffffffffffffffff168152602001908152602001600020600084815260200190815260200160002054905080600660008773ffffffffffffffffffffffffffffffffffffffff1673ffffffffffffffffffffffffffffffffffffffff168152602001908152602001600020600084815260200190815260200160002081905550816007600083815260200190815260200160002081905550505b6007600084815260200190815260200160002060009055600660008573ffffffffffffffffffffffffffffffffffffffff1673ffffffffffffffffffffffffffffffffffffffff16815260200190815260200160002060008381526020019081526020016000206000905550505050565b6000600160088054905061326d9190614682565b90506000600960008481526020019081526020016000205490506000600883815481106132c3577f4e487b7100000000000000000000000000000000000000000000000000000000600052603260045260246000fd5b90600052602060002001549050806008838154811061330b577f4e487b7100000000000000000000000000000000000000000000000000000000600052603260045260246000fd5b906000526020600020018190555081600960008381526020019081526020016000208190555060096000858152602001908152602001600020600090556008805480613380577f4e487b7100000000000000000000000000000000000000000000000000000000600052603160045260246000fd5b6001900381819060005260206000200160009055905550505050565b60006133a783610f3e565b905081600660008573ffffffffffffffffffffffffffffffffffffffff1673ffffffffffffffffffffffffffffffffffffffff168152602001908152602001600020600083815260200190815260200160002081905550806007600084815260200190815260200160002081905550505050565b600080600090507a184f03e93ff9f4daa797ed6e38ed64bf6a1f010000000000000000831061349f577a184f03e93ff9f4daa797ed6e38ed64bf6a1f0100000000000000008381613495577f4e487b7100000000000000000000000000000000000000000000000000000000600052601260045260246000fd5b0492506040810190505b6d04ee2d6d415b85acef81000000008310613502576d04ee2d6d415b85acef810000000083816134f8577f4e487b7100000000000000000000000000000000000000000000000000000000600052601260045260246000fd5b0492506020810190505b662386f26fc10000831061355757662386f26fc10000838161354d577f4e487b7100000000000000000000000000000000000000000000000000000000600052601260045260246000fd5b0492506010810190505b6305f5e10083106135a6576305f5e100838161359c577f4e487b7100000000000000000000000000000000000000000000000000000000600052601260045260246000fd5b0492506008810190505b61271083106135f15761271083816135e7577f4e487b7100000000000000000000000000000000000000000000000000000000600052601260045260246000fd5b0492506004810190505b6064831061363a5760648381613630577f4e487b7100000000000000000000000000000000000000000000000000000000600052601260045260246000fd5b0492506002810190505b600a8310613649576001810190505b80915050919050565b82805461365e9061476c565b90600052602060002090601f01602090048101928261368057600085556136c7565b82601f1061369957805160ff19168380011785556136c7565b828001600101855582156136c7579182015b828111156136c65782518255916020019190600101906136ab565b5b5090506136d491906136d8565b5090565b5b808211156136f15760008160009055506001016136d9565b5090565b600061370861370384614522565b6144fd565b90508281526020810184848401111561372057600080fd5b61372b84828561472a565b509392505050565b600061374661374184614553565b6144fd565b90508281526020810184848401111561375e57600080fd5b61376984828561472a565b509392505050565b60008135905061378081614d43565b92915050565b60008135905061379581614d5a565b92915050565b6000813590506137aa81614d71565b92915050565b6000815190506137bf81614d71565b92915050565b600082601f8301126137d657600080fd5b81356137e68482602086016136f5565b91505092915050565b60008083601f84011261380157600080fd5b8235905067ffffffffffffffff81111561381a57600080fd5b60208301915083600182028301111561383257600080fd5b9250929050565b600082601f83011261384a57600080fd5b813561385a848260208601613733565b91505092915050565b60008135905061387281614d88565b92915050565b60006020828403121561388a57600080fd5b600061389884828501613771565b91505092915050565b600080604083850312156138b457600080fd5b60006138c285828601613771565b92505060206138d385828601613771565b9150509250929050565b6000806000606084860312156138f257600080fd5b600061390086828701613771565b935050602061391186828701613771565b925050604061392286828701613863565b9150509250925092565b6000806000806080858703121561394257600080fd5b600061395087828801613771565b945050602061396187828801613771565b935050604061397287828801613863565b925050606085013567ffffffffffffffff81111561398f57600080fd5b61399b878288016137c5565b91505092959194509250565b600080604083850312156139ba57600080fd5b60006139c885828601613771565b92505060206139d985828601613786565b9150509250929050565b600080604083850312156139f657600080fd5b6000613a0485828601613771565b9250506020613a1585828601613863565b9150509250929050565b600060208284031215613a3157600080fd5b6000613a3f8482850161379b565b91505092915050565b600060208284031215613a5a57600080fd5b6000613a68848285016137b0565b91505092915050565b60008060008060008060a08789031215613a8a57600080fd5b600087013567ffffffffffffffff811115613aa457600080fd5b613ab089828a016137ef565b96509650506020613ac389828a01613863565b9450506040613ad489828a01613863565b935050606087013567ffffffffffffffff811115613af157600080fd5b613afd89828a01613839565b925050608087013567ffffffffffffffff811115613b1a57600080fd5b613b2689828a01613839565b9150509295509295509295565b600060208284031215613b4557600080fd5b6000613b5384828501613863565b91505092915050565b60008060408385031215613b6f57600080fd5b6000613b7d85828601613863565b9250506020613b8e85828601613863565b9150509250929050565b600080600080600060a08688031215613bb057600080fd5b6000613bbe88828901613863565b9550506020613bcf88828901613863565b945050604086013567ffffffffffffffff811115613bec57600080fd5b613bf888828901613839565b935050606086013567ffffffffffffffff811115613c1557600080fd5b613c2188828901613839565b925050608086013567ffffffffffffffff811115613c3e57600080fd5b613c4a88828901613839565b9150509295509295909350565b613c60816146b6565b82525050565b613c6f816146c8565b82525050565b6000613c8082614584565b613c8a818561459a565b9350613c9a818560208601614739565b613ca38161485c565b840191505092915050565b6000613cba83856145b6565b9350613cc783858461472a565b613cd08361485c565b840190509392505050565b6000613ce68261458f565b613cf081856145b6565b9350613d00818560208601614739565b613d098161485c565b840191505092915050565b6000613d1f8261458f565b613d2981856145c7565b9350613d39818560208601614739565b80840191505092915050565b6000613d52602d836145b6565b9150613d5d8261486d565b604082019050919050565b6000613d75602b836145b6565b9150613d80826148bc565b604082019050919050565b6000613d986032836145b6565b9150613da38261490b565b604082019050919050565b6000613dbb6026836145b6565b9150613dc68261495a565b604082019050919050565b6000613dde600f836145b6565b9150613de9826149a9565b602082019050919050565b6000613e016025836145b6565b9150613e0c826149d2565b604082019050919050565b6000613e24601c836145b6565b9150613e2f82614a21565b602082019050919050565b6000613e476024836145b6565b9150613e5282614a4a565b604082019050919050565b6000613e6a6019836145b6565b9150613e7582614a99565b602082019050919050565b6000613e8d6029836145b6565b9150613e9882614ac2565b604082019050919050565b6000613eb0602e836145b6565b9150613ebb82614b11565b604082019050919050565b6000613ed36009836145b6565b9150613ede82614b60565b602082019050919050565b6000613ef66020836145b6565b9150613f0182614b89565b602082019050919050565b6000613f196020836145b6565b9150613f2482614bb2565b602082019050919050565b6000613f3c6018836145b6565b9150613f4782614bdb565b602082019050919050565b6000613f5f6021836145b6565b9150613f6a82614c04565b604082019050919050565b6000613f826000836145ab565b9150613f8d82614c53565b600082019050919050565b6000613fa5603d836145b6565b9150613fb082614c56565b604082019050919050565b6000613fc8602c836145b6565b9150613fd382614ca5565b604082019050919050565b6000613feb6035836145b6565b9150613ff682614cf4565b604082019050919050565b61400a81614720565b82525050565b600061401c8285613d14565b91506140288284613d14565b91508190509392505050565b600061403f82613f75565b9150819050919050565b600060208201905061405e6000830184613c57565b92915050565b60006080820190506140796000830187613c57565b6140866020830186613c57565b6140936040830185614001565b81810360608301526140a58184613c75565b905095945050505050565b60006020820190506140c56000830184613c66565b92915050565b6000610100820190506140e1600083018b613c66565b6140ee602083018a614001565b6140fb6040830189614001565b6141086060830188614001565b818103608083015261411a8187613cdb565b905081810360a083015261412e8186613cdb565b905061413d60c0830185613c57565b61414a60e0830184613c57565b9998505050505050505050565b600060208201905081810360008301526141718184613cdb565b905092915050565b600060a08201905081810360008301526141938188613cdb565b905081810360208301526141a78187613cdb565b905081810360408301526141bb8186613cdb565b90506141ca6060830185614001565b6141d76080830184613c57565b9695505050505050565b600060208201905081810360008301526141fa81613d45565b9050919050565b6000602082019050818103600083015261421a81613d68565b9050919050565b6000602082019050818103600083015261423a81613d8b565b9050919050565b6000602082019050818103600083015261425a81613dae565b9050919050565b6000602082019050818103600083015261427a81613dd1565b9050919050565b6000602082019050818103600083015261429a81613df4565b9050919050565b600060208201905081810360008301526142ba81613e17565b9050919050565b600060208201905081810360008301526142da81613e3a565b9050919050565b600060208201905081810360008301526142fa81613e5d565b9050919050565b6000602082019050818103600083015261431a81613e80565b9050919050565b6000602082019050818103600083015261433a81613ea3565b9050919050565b6000602082019050818103600083015261435a81613ec6565b9050919050565b6000602082019050818103600083015261437a81613ee9565b9050919050565b6000602082019050818103600083015261439a81613f0c565b9050919050565b600060208201905081810360008301526143ba81613f2f565b9050919050565b600060208201905081810360008301526143da81613f52565b9050919050565b600060208201905081810360008301526143fa81613f98565b9050919050565b6000602082019050818103600083015261441a81613fbb565b9050919050565b6000602082019050818103600083015261443a81613fde565b9050919050565b60006020820190506144566000830184614001565b92915050565b60006060820190506144716000830186614001565b61447e6020830185613c57565b61448b6040830184614001565b949350505050565b600060a0820190506144a86000830189614001565b6144b56020830188614001565b81810360408301526144c8818688613cae565b905081810360608301526144dc8185613cdb565b905081810360808301526144f08184613cdb565b9050979650505050505050565b6000614507614518565b9050614513828261479e565b919050565b6000604051905090565b600067ffffffffffffffff82111561453d5761453c61482d565b5b6145468261485c565b9050602081019050919050565b600067ffffffffffffffff82111561456e5761456d61482d565b5b6145778261485c565b9050602081019050919050565b600081519050919050565b600081519050919050565b600082825260208201905092915050565b600081905092915050565b600082825260208201905092915050565b600081905092915050565b60006145dd82614720565b91506145e883614720565b9250827fffffffffffffffffffffffffffffffffffffffffffffffffffffffffffffffff0382111561461d5761461c6147cf565b5b828201905092915050565b600061463382614720565b915061463e83614720565b9250817fffffffffffffffffffffffffffffffffffffffffffffffffffffffffffffffff0483118215151615614677576146766147cf565b5b828202905092915050565b600061468d82614720565b915061469883614720565b9250828210156146ab576146aa6147cf565b5b828203905092915050565b60006146c182614700565b9050919050565b60008115159050919050565b60007fffffffff0000000000000000000000000000000000000000000000000000000082169050919050565b600073ffffffffffffffffffffffffffffffffffffffff82169050919050565b6000819050919050565b82818337600083830152505050565b60005b8381101561475757808201518184015260208101905061473c565b83811115614766576000848401525b50505050565b6000600282049050600182168061478457607f821691505b60208210811415614798576147976147fe565b5b50919050565b6147a78261485c565b810181811067ffffffffffffffff821117156147c6576147c561482d565b5b80604052505050565b7f4e487b7100000000000000000000000000000000000000000000000000000000600052601160045260246000fd5b7f4e487b7100000000000000000000000000000000000000000000000000000000600052602260045260246000fd5b7f4e487b7100000000000000000000000000000000000000000000000000000000600052604160045260246000fd5b6000601f19601f8301169050919050565b7f4552433732313a2063616c6c6572206973206e6f7420746f6b656e206f776e6560008201527f72206f7220617070726f76656400000000000000000000000000000000000000602082015250565b7f455243373231456e756d657261626c653a206f776e657220696e646578206f7560008201527f74206f6620626f756e6473000000000000000000000000000000000000000000602082015250565b7f4552433732313a207472616e7366657220746f206e6f6e20455243373231526560008201527f63656976657220696d706c656d656e7465720000000000000000000000000000602082015250565b7f4f776e61626c653a206e6577206f776e657220697320746865207a65726f206160008201527f6464726573730000000000000000000000000000000000000000000000000000602082015250565b7f5472616e73666572206661696c65640000000000000000000000000000000000600082015250565b7f4552433732313a207472616e736665722066726f6d20696e636f72726563742060008201527f6f776e6572000000000000000000000000000000000000000000000000000000602082015250565b7f4552433732313a20746f6b656e20616c7265616479206d696e74656400000000600082015250565b7f4552433732313a207472616e7366657220746f20746865207a65726f2061646460008201527f7265737300000000000000000000000000000000000000000000000000000000602082015250565b7f4552433732313a20617070726f766520746f2063616c6c657200000000000000600082015250565b7f4552433732313a2061646472657373207a65726f206973206e6f74206120766160008201527f6c6964206f776e65720000000000000000000000000000000000000000000000602082015250565b7f45524337323155524953746f726167653a2055524920736574206f66206e6f6e60008201527f6578697374656e7420746f6b656e000000000000000000000000000000000000602082015250565b7f456d707479207572690000000000000000000000000000000000000000000000600082015250565b7f4552433732313a206d696e7420746f20746865207a65726f2061646472657373600082015250565b7f4f776e61626c653a2063616c6c6572206973206e6f7420746865206f776e6572600082015250565b7f4552433732313a20696e76616c696420746f6b656e2049440000000000000000600082015250565b7f4552433732313a20617070726f76616c20746f2063757272656e74206f776e6560008201527f7200000000000000000000000000000000000000000000000000000000000000602082015250565b50565b7f4552433732313a20617070726f76652063616c6c6572206973206e6f7420746f60008201527f6b656e206f776e6572206f7220617070726f76656420666f7220616c6c000000602082015250565b7f455243373231456e756d657261626c653a20676c6f62616c20696e646578206f60008201527f7574206f6620626f756e64730000000000000000000000000000000000000000602082015250565b7f455243373231456e756d657261626c653a20636f6e736563757469766520747260008201527f616e7366657273206e6f7420737570706f727465640000000000000000000000602082015250565b614d4c816146b6565b8114614d5757600080fd5b50565b614d63816146c8565b8114614d6e57600080fd5b50565b614d7a816146d4565b8114614d8557600080fd5b50565b614d9181614720565b8114614d9c57600080fd5b5056fea264697066735822122004d4ef1e901cf3a7973f86a64c031656ae5af0b62ce7807b8d6dabd22bcd60ca64736f6c63430008040033",
  "linkReferences": {},
  "deployedLinkReferences": {}
}